:1000000000800020BD0100006D30000025300000A0
:10001000253000002530000025300000253000008C
:100020002530000025300000253000006D30000034
:100030006D30000025300000094400000D4500002F
:100040006D3000006D3000006D3000006D3000003C
:100050006D3000006D3000006D3000006D3000002C
:100060006D3000006D3000006D3000006D3000001C
:100070006D3000006D3000006D3000006D3000000C
:100080006D3000006D3000006D3000006D300000FC
:100090006D3000006D3000006D3000006D300000EC
:1000A000411D00004D1D00006D3000006D3000004E
:1000B0006D3000006D3000006D3000006D300000CC
:1000C0006D3000006D3000006D3000006D300000BC
:1000D0006D3000006D3000006D3000006D300000AC
:1000E0006D3000006D3000006D3000006D3000009C
:1000F0006D300000614A00006D300000354900009D
:100100006D3000005D4C00006D3000006D3000006F
:100110006D3000006D3000006D3000006D3000006B
:100120006D3000006D3000006D3000006D3000005B
:100130006D3000006D3000006D3000006D3000004B
:100140006D300000612B00006D3000006D3000004C
:100150006D3000006D3000006D3000006D3000002B
:100160006D300000A13600006D3000006D300000E1
:100170006D3000006D3000006D3000006D3000000B
:100180006D3000006D3000006D3000006D300000FB
:100190006D3000006D3000006D3000006D300000EB
:1001A0006D3000006D3000006D3000006D300000DB
:1001B0006D3000006D30000091480000564B4CF24D
:1001C000205210B51A804DF628121A8000BF00BFC9
:1001D00002F050FF514B4FF010621A60504A9A6083
:1001E000504ADA60504A136813F4807304D14F49BF
:1001F0000B604FF4A85313604D4B1A78110703D5C9
:100200001A7842F008021A704A4B4B492A221A7097
:100210004A4A4B4B8B4204D252F8040F43F8040B6A
:10022000F8E7484B484900228B4202D243F8042B9E
:10023000FAE74649464A002352F8230041F82300D2
:1002400001336F2BF8D1434B434A802103F8011B44
:100250009342FBD1414B3D4A1A60414B8A221A70AE
:10026000A3F5805324225A70A0221A709A7992071B
:10027000FCD59A79D406FCD43A4A937903F00C035E
:10028000082B384BF9D103221A7140225A719A79FE
:100290009006FCD5334A9179324B4906FBD5324A58
:1002A000324911600221516020221A709A7902F0BD
:1002B0000C020C2AFAD12E4B2E4A1A602E4B2F4AD2
:1002C0001A6000225A60072243F8042C2C4AC3F813
:1002D0000C2D62B603F088F8144B1B68DA0705D5BD
:1002E000284803F007F8284B284A1A60284B1B7847
:1002F0005B0609D5244C254B22689A4204D121483B
:1003000002F0F8FF0023236004F0A8FF02F0B8FE1B
:1003100004F06CF9FEE700BF0E2005403080044079
:10032000823F04000100002B10D0034014D0034092
:1003300002D0074000E00740E494FF1F7061000016
:100340002089FF1FE494FF1F20B4FF1F0084FF1FBC
:100350000000000000E400E05FE400E008ED00E0E1
:100360000050064000400640448004400000030165
:1003700004800440C010050014E000E0FF76010096
:1003800000002020310000001CE00340A5C3945A67
:1003900000F00740FFFFFFFFFFFFFFFFFFFFFFFF32
:1003A000FFFFFFFFFFFFFFFFFFFFFFFFFFFFFFFF5D
:1003B000FFFFFFFFFFFFFFFFFFFFFFFFFFFFFFFF4D
:1003C000FFFFFFFFFFFFFFFFFFFFFFFFFFFFFFFF3D
:1003D000FFFFFFFFFFFFFFFFFFFFFFFFFFFFFFFF2D
:1003E000FFFFFFFFFFFFFFFFFFFFFFFFFFFFFFFF1D
:1003F000FFFFFFFFFFFFFFFFFFFFFFFFFFFFFFFF0D
:10040000FFFFFFFFFFFFFFFFFFFFFFFFDEF9FFFF23
:1004100010B5054C237833B9044B13B10448AFF33E
:1004200000800123237010BDE494FF1F0000000032
:1004300074610000084B10B51BB108490848AFF3C0
:1004400000800848036803B910BD074B002BFBD0A0
:10045000BDE81040184700BF00000000E894FF1FEF
:1004600074610000E494FF1F000000002DE9F041DA
:10047000846874B1A3686568033323F00303CA1862
:10048000AA42A36005D804F10C00A2601844BDE89C
:10049000F081C768B942884638BFB846054608F1BA
:1004A0000C000E4604F002FF40B17F0080E810010E
:1004B000A8608660EF600C30BDE8F081BDE8F08197
:1004C00010B5044604F08EF9204610BD10B5044B5B
:1004D000044640F8183B01F071FD204610BD00BFF6
:1004E000805E000038B505468068054B2B6028B15A
:1004F000046804F0E3FE2046002CF9D1284638BDFC
:10050000645C0000002310B4104C4172026104606E
:100510000372C36041B1194600E0026942F823103A
:10052000427A01339A42F8DC094B1A680AB90BE0A7
:100530001A465369002BFBD150610023436183802D
:10054000C380837210BC70471860F6E7585C0000E7
:1005500018B2FF1F12490A6838B50023114D056013
:100560000446437203610372C3600AB916E01A4677
:100570005369002BFBD15461204600250A4B65616D
:10058000A580E580A57240F8183B01F009FD2046E2
:10059000E566256700F060FC204638BD0860EBE7A3
:1005A00018B2FF1F585C0000805E00002DE9F04F7C
:1005B000082185B0C348C44FC44EC54DDFF86893C9
:1005C00002F0C6FAC34800F0E3F9C24AC249C34880
:1005D00000F0C2F9BF4AC049C14800F0BDF9C14AA4
:1005E000C14B11680291029C12680392BF490398A3
:1005F000BF4A08604FF48071D96018464FF0000878
:100600001460BC49BC4ABD4C1C60C3F8088004F0AF
:1006100013FEBB48FFF79EFFB74ABA49B84804F03B
:100620000BFEB948FFF796FFB34AB649B64804F047
:1006300003FEB648FFF78EFFAF4AB249B34804F055
:10064000FBFDB348FFF786FFAB4AAE49B04804F064
:10065000F3FD07F1280204213846FFF753FF4FF45A
:10066000803406F1280204213046BC61FC613C6202
:100670007C62C7F80090FFF745FFDFF8B0E2B46195
:10068000022005F11802F461346274624346C6F830
:100690000090414685F80880C5F80C80C5F800E058
:1006A00068722A612C4600E0226942F823106A7AB7
:1006B000874801339A42F7DC964B1A680AB9FFE083
:1006C0001A465369002BFBD15561DFF864A2924BA7
:1006D0007F482B6000246C61AC80EC80AC7201F030
:1006E00039F8874BDFF84CB2CAF8003050468AF828
:1006F0000840CAF804708AF80940CAF80C408AF821
:10070000104004F03BF87C4A8449DFF82C92DFF873
:100710002C82504604F090FD794B8BF809404FF045
:10072000010A58468BE84800CBF80C408BF8104083
:100730008BF808A004F022F86F4A7849584604F074
:100740007BFD714BC9F80030484689F80840C9F86C
:10075000047089F809A0C9F80C4089F8104004F029
:100760000DF8654A6D49DFF8D8B1484604F064FDDC
:10077000654B88F808A088E8880040464FF00203DF
:1007800088F80930C8F80C4088F8104003F0F6FFEC
:10079000594A6249DFF87891404604F04DFDDFF890
:1007A000A4818BF80840032358468BF80930019345
:1007B000CBF80470CBF80C408BF81040CBF80090CD
:1007C00003F0DCFF4C4A5549584604F035FDDFF88C
:1007D00078B1019B88F809304046C8F80090C8F805
:1007E000046088F808A0C8F80C4088F8104003F0AE
:1007F000C5FF414A4949DFF85491404604F01CFDC9
:10080000DFF808818BF808405846CBF804608BF875
:1008100009A0CBF80C408BF81040CBF8008003F017
:10082000ADFF354A3D49584604F006FDDFF820B1DA
:10083000C9F800804FF00203484689F80930C9F82A
:10084000046089F808A0C9F80C4089F8104003F04A
:1008500095FF294A3149DFF8FC80484604F0ECFC5A
:1008600058468BF80840CBF80070CBF804508BF852
:100870000940CBF80C408BF8104003F07FFF1E4A74
:100880002649584604F0D8FC404688F809A0C8F824
:100890000060C8F8045088F80840C8F80C4088F890
:1008A000104003F06BFF4046134A1C4904F0C4FC9F
:1008B0001B4B1C4A1A600A221A7205B0BDE8F08F61
:1008C000186002E700A9FF1F4CA9FF1F84A9FF1FA2
:1008D000A098FF1FD498FF1F045E00008097FF1FA1
:1008E0001098FF1F08B1FF1F3CA9FF1F24A9FF1F7D
:1008F00070A3FF1FE5040000FC89FF1F645C00007B
:1009000080A6FF1FCD040000BCA9FF1F0095FF1F9C
:10091000B0A3FF1F18B2FF1F8C5E0000C1040000CF
:1009200004A9FF1F585E0000745E0000585C0000C0
:1009300074A3FF1F88A3FF1F9CA3FF1F28A9FF1FED
:1009400010A9FF1F30A6FF1F44A6FF1F58A6FF1FB8
:10095000C098FF1F6CA6FF1F70B50C4B82B01B68C0
:100960000193019B4360002304460E461546037025
:10097000437083700375437519467822183004F06C
:100980005DFF2046A660256102B070BD08B1FF1F63
:10099000F0B51D4C83B00646074604F1300E2068C2
:1009A0006168A268E3683D460FC5103474452F4660
:1009B000F5D120686168154A154B03C7126801928A
:1009C000019A18689988C6F8E82000230122B063CC
:1009D000B18786F8E62086F8BB2286F8EC3086F8E8
:1009E000ED30A6F8EE30A6F8F03086F8F23006F5D5
:1009F0002F7406F69C252046243400F00BF8AC42F8
:100A0000F9D1304603B0F0BD105E000008B1FF1F01
:100A1000485E000070B400220B49827083B0096800
:100A20000191019E028064210A251E24C270027277
:100A300042728272C28246608581C4810182418293
:100A400003B070BC704700BF08B1FF1F00207047A3
:100A5000044B0022FF204FF0FF31187099605A803C
:100A6000DA6070473CACFF1F10B5044603F050FC41
:100A7000204610BD024A0349034804F0DDBB00BF15
:100A8000FC89FF1F690A00004CACFF1F024A0349A2
:100A9000034804F0D1BB00BFFC89FF1F690A0000B6
:100AA00054ACFF1F0020704700207047F8B5144C6D
:100AB000037A242908BFC2805B0001250E46204628
:100AC000C1F30721174684F83B3084F85E5084F860
:100AD0005D5000F007FFF1B2204600F003FFC7F3BE
:100AE0000721204600F0FEFEF9B2204600F0FAFE93
:100AF0002946204601F09AF8B0FA80F04009F8BD86
:100B0000008AFF1F70B5012604460671344800F0C4
:100B1000FDFE052002F01AFC204644F2600230215E
:100B2000FFF7C4FF0546002858D06C222621204636
:100B3000FFF7BCFF4FF4F97228212046FFF7B6FFFC
:100B400040F622722C212046FFF7B0FF44F24642C5
:100B50003C212046FFF7AAFF40F23712242120460D
:100B6000FFF7A4FF44F2FF0230212046FFF79EFF6B
:100B7000732202212046FFF799FF4FF4C87002F05C
:100B8000E5FB41F61D522E212046FFF78FFF042280
:100B900011462046FFF78AFF4FF49872062120463F
:100BA000FFF784FF10220A212046FFF77FFF002273
:100BB0000E212046FFF77AFF43F63C4210212046E3
:100BC000FFF774FF47F67F7222212046FFF76EFF82
:100BD000362224212046FFF769FF6672284670BD41
:100BE000008AFF1F10B5044619B1012911D0002059
:100BF00010BD55222021FFF759FF0028F7D0E288C9
:100C000042F00402204692B22421BDE81040FFF7D2
:100C10004DBF40F273122A21FFF748FF0028E6D0AB
:100C2000882220212046FFF741FF0028DFD0E288FC
:100C3000204622F004022421BDE81040FFF736BF11
:100C400038B50546F1B1802903799ABFC1F1800416
:100C500044EA0424002433B9224628462221BDE870
:100C60003840FFF723BFC288002322F0100203712F
:100C70002421FFF71BFF224628462221BDE83840E9
:100C8000FFF714BF0123037147F67F722221FFF79C
:100C90000DFFEA8842F01002284692B22421BDE8F6
:100CA0003840FFF703BF00BF0B4610B507490446A5
:100CB000184604F051F9064904F046F804F09CFA8D
:100CC00001462046BDE81040FFF7BABF00000143CF
:100CD000EE7CFF3E2DE9F8434FF00008064600F198
:100CE0001805474641463046002F4FD003F018FD07
:100CF000F0B12C68B4F5803F07F1040100F1040E57
:100D000007F5827C27D05EF8042B34FB02F334FB1A
:100D100012F903F30F0209F30F03C2EA03430A684F
:100D200093FA12F341F8043B8C45ECD803F0B4FC81
:100D300008F10108B8F1040F05F10405D2D1002F24
:100D400040D030463946002203F0D0FC3846BDE89A
:100D5000F84303F0A1BC07F10C0100F10C0451F8B9
:100D6000083C54F8082C93FA12F341F8083C54F864
:100D7000042C51F8043C93FA12F38C4541F8043CDE
:100D800004F1080401F10801E9D8CFE703F0D4FC2D
:100D900007460028CCD02868B0F5803FC8D0391D60
:100DA00007F582740B6830FB03F230FB13F302F398
:100DB0000F0203F30F03C2EA034341F8043B8C42E2
:100DC000F0D8B5E7BDE8F883024A0349034804F0C8
:100DD00033BA00BFFC89FF1F690A00005CACFF1F2B
:100DE000024A0349034804F027BA00BFFC89FF1FE9
:100DF000690A000064ACFF1F024A0349034804F07B
:100E00001BBA00BFFC89FF1F690A00006CACFF1F02
:100E100038B5074D074C08482A46214604F00CFA1D
:100E20002A4621460548BDE8384004F005BA00BF0F
:100E3000FC89FF1F690A000074ACFF1F7CACFF1F18
:100E4000024A0349034804F0F7B900BFFC89FF1FB9
:100E5000690A000084ACFF1F38B50446C06E0D233C
:100E6000002584F87B3284F87C32256610B103F0CB
:100E700013FCE566206F18B103F00EFC0023236716
:100E800038BD00BF836B9AB2012A01D000207047A1
:100E9000C26B4AF644418A4222D045F222618A421C
:100EA0001BD042F611318A42F0D10F4904221B0CAB
:100EB000012B04D0022BE9D1490842F00102B0F81D
:100EC0004630082B04D0102BE0D1490842F0020232
:100ED000816680F87C220120704704490422E6E7FD
:100EE00003490022E3E700BF34EE35171AF79A0BE7
:100EF0008D7BCD052DE9F04FB0F8766200F17607D5
:100F000083B03E44E9B1DFF8B4B304460D464FF078
:100F1000080A4FF0000994F87B320D2B00F258813B
:100F2000DFE813F00F000F00D3009E000F000F004A
:100F30000F000F00160113004500710087000F001D
:100F40002266002003B0BDE8F08F226E94F87A325A
:100F5000AA4204F1380028BF2A4618443146904678
:100F600001F024FF94F87A12B4F87622236E4144FB
:100F7000C8EB0303424484F87A12A4F8762223666D
:100F80000193002BDDD12046FFF77CFF002800F005
:100F90001F810A22019BC4F860A0C8EB05054644E6
:100FA00084F87A3284F87B22002DB4D1C9E7226E0E
:100FB00094F87A32AA4204F1380028BF2A4618442D
:100FC0003146904601F0F2FE94F87A12B4F8762297
:100FD000236E41444244C8EB030384F87A12A4F818
:100FE00076222366002BACD1A16BE26B22665945B9
:100FF0004644C8EB050500F001810B2384F87B32E1
:10100000002D88D19DE7226EB4F876329542C0F06B
:101010004B8113440A21AD1AC4F860A0164484F829
:101020007A92A4F8763284F87B12002D7FF473AFA5
:1010300087E7226EB4F8761295422B4628BF1346F6
:101040001944D21AA4F876127FF47AAFED1A1E442E
:10105000C4F860A084F87BA2002D7FF45CAF70E739
:10106000236E94F87D129D4228BF1D465A1B2266AE
:10107000002900F0B680E16EB4F87430A06B01EB8B
:10108000430C4FF0000EACF8040084F87DE2206FB2
:1010900096F801C016F802EB00EB430001339BB257
:1010A0004EEA0C2E7F2BA4F87430A5F10205A0F8AF
:1010B00004E000F2DA80002D40F09380002A00F076
:1010C000968084F87D5228463CE7236EE16E9D426F
:1010D00028BF1D46C5EB030C0236C4F860C003E010
:1010E0000236002D00F0A280B4F8742016F8020C2D
:1010F00016F801EC531C9BB201EB420240EA0E20B1
:101100007F2BA4F87430A5F102059080E8D9002265
:10111000204603F0EBFA0122E16E204603F0E6FAE6
:10112000E06E03F0B9FA236E206F1D44F61B002316
:10113000A4F876622566E36610B103F0ADFA256E79
:1011400015B90D2384F87B32012003B0BDE8F08F80
:10115000226E94F87A32AA4204F1380028BF2A4657
:1011600018443146904601F021FE94F87A12B4F802
:101170007622236E41444244C8EB030384F87A127A
:10118000A4F876222366002B7FF4DBAEA26B4A49DB
:101190008A421DD1226CA1F57001A1F2FB718A4235
:1011A00016D101F15B41626C01F5F11101F60F41BD
:1011B0008A4230D00C23A26C84F87A3284F87B32D5
:1011C000C8EB050546442266002D7FF4A4AEB8E6C0
:1011D0000D23002084F87C3284F87B3203B0BDE814
:1011E000F08F023D307896F801E024D172BB0D23D8
:1011F000002084F87B3203B0BDE8F08F94F87C12B5
:1012000084F87D32CB0784F87B1226D46266002DE9
:101210007FF481AE95E6A26CA2F110011829D7D80F
:10122000092184F87A3284F87B12C9E7BCF1000FF7
:101230007FF487AEDBE7E16EB4F8743001EB430C6A
:1012400040EA0E200236ACF8040020E73388A3639E
:101250000223284684F87D3274E603F0C9F920673A
:1012600000283FF46EAE226ED0E70022204603F045
:101270003DFA4FF00008E06E03F00EFA0122216FF4
:10128000C4F86C80204603F031FA206F03F004FAB2
:10129000206EC4F87080F61B2844A4F8766220669D
:1012A00000283FF44EAF4FE7521B1D442266A4F8BE
:1012B0007652002046E600BF52494646646174619A
:1012C00090F87B320D2B00F0AC802DE9F041044604
:1012D00003F08EF9E066002800F0938094F87B32EA
:1012E000072B40F2908000232367B4F87832B4F8DB
:1012F00076120022591A9142A4F8742005DD204686
:10130000FFF7F8FD002840F0938094F87B320D2B16
:1013100004F1180625D0304600F0EAFD08B304F1C8
:1013200076074FF000080FE0A4F8768294F87B521D
:10133000FFF7E0FD94F87B32002860D10D2B10D030
:10134000072D1ED9072B1CD839464FF400723046A2
:1013500000F036FE83B219462046A4F87832002BFE
:10136000E2D1304600F032FE354A1388002B59D1C5
:101370005E21344800F096FD0D2384F87C3284F819
:101380007B32E06EF0B1B4F87430BBB17F2B09D87A
:1013900000EB4303023300F58175002223F8022F8E
:1013A000AB42FBD101460022204603F09FF994F89E
:1013B0007B32072B01D8DB073CD5E06E03F06CF9DC
:1013C0000023E366206FE0B1B4F874308BB17F2B5B
:1013D00009D800EB4303023300F58175002223F89E
:1013E000022F9D42FBD101460122204603F07EF9E7
:1013F000206F03F051F900232367BDE8F0810D2B26
:10140000AFD0BDE8F081DA077FF56DAF03F0F0F8FB
:10141000206700287FF469AFE06EBDE8F04103F07B
:101420003BB97047013B9BB21380002BA0D0A3E7D0
:10143000BDE8F0810122E16E204603F057F9BCE7D8
:1014400094ACFF1FD88AFF1F024A0349034803F0E8
:10145000F3BE00BFFC89FF1F690A00008CACFF1FB0
:10146000024A0349034803F0E7BE00BFFC89FF1F9F
:10147000690A000098ACFF1F024A0349034803F0C1
:10148000DBBE00BFFC89FF1F690A0000A0ACFF1F84
:10149000024A0349034803F0CFBE00BFFC89FF1F87
:1014A000690A0000A8ACFF1F024A0349034803F081
:1014B000C3BE00BFFC89FF1F690A0000B0ACFF1F5C
:1014C0002DE9F84F344B35481A68354912681B79B5
:1014D0000B70824229D2334B1B784BBBDFF8D4A070
:1014E000DFF8D490DFF8D480DFF8D4B0DAF8006009
:1014F000D9F80070B8F80040BBF80050002E3CD07E
:10150000A7B33A1D311D02EB450201EB440101F086
:10151000D1FB403540347F2C1CD8A8F800407F2DEB
:101520000BD8ABF80050BDE8F88FA0F58070D5E778
:101530001D4B4FF080421A60D0E700243846ABF8CC
:10154000004003F0A9F8194B1A68C9F800201C6084
:10155000BDE8F88F00243046A8F8004003F09CF85E
:10156000134B1A68CAF800201C60D8E7311D01EB44
:10157000440101F0BEFB4034CDE737B1391D01EB2A
:10158000450101F0D6FB4035C5E74FF4807239467E
:1015900004F054F9BFE700BFBCACFF1F0083FF1F7E
:1015A0001F800040D4ACFF1F08E200E0D0ACFF1F5A
:1015B000D8ACFF1FCCACFF1FC4ACFF1FB8ACFF1FE3
:1015C000C8ACFF1F70B50021044603F0A9F880B134
:1015D00072B61C4A1368002B29D01B490D6805B34D
:1015E0001A4E156000220860328062B6184603F079
:1015F00053F82046012103F093F888B172B6144ADB
:101600001368CBB113490C6874B1134D14600022F8
:1016100008602A8062B61846BDE8704003F03CB806
:1016200070BD086062B6E4E7086062B670BD074945
:1016300010600B8062B6DCE7074910600B8062B671
:1016400070BD00BFCCACFF1FD8ACFF1FB8ACFF1FF4
:10165000C4ACFF1FD0ACFF1FC8ACFF1F284B2949EB
:101660001A68294842F400421A600A6842F00202ED
:101670000A601A6842F002021A600368002B3EDB1F
:10168000224B1B68002B3ADB214A4FF08643136044
:101690001368002BFCDBF0B51E4C1F48DFF8A8E0F8
:1016A0001E491F4B1F4A204F204E214D41F2100C66
:1016B000C4F800C0002404600120CEF80000DFF868
:1016C0008CE0C1F800E04FF480311960194B1360D1
:1016D000DFF87CE0184A3A603460286000F18E4000
:1016E000CEF80000154CB9671548164946F8503C2D
:1016F0004FF4C0632A61236003600B60F0BD704744
:101700003C8004404080044000F0024080F00240F1
:1017100000F1024004F1024060F0024008F0024093
:101720000CF0024010F0024014F00240E0F00240E1
:1017300084F002401B1F0100001F1F1F08B004405F
:101740000CB0044018B0044004F00240010000074F
:1017500088F00240F8B5284C284F0121204602F0BD
:1017600073FD274A274B002515601D60FFF776FFA4
:10177000254B264ADFF8B0E0254826494FF4C066DD
:101780001E60236802261A609E802279C3F810E04A
:1017900002F18042D8609E6002F504324FF48070FE
:1017A00040F2011E0626D8829D82D8839D619E83C9
:1017B000A3F806E08F204FF08073157010700B6057
:1017C0000F6003F04DF82279134B144D187053112C
:1017D0009B0003F1604303F5614302F11000012116
:1017E00002F01F0201FA02F20D4E45F820600D4989
:1017F0001A6023790B70F8BDBCACFF1F010000908C
:10180000CCACFF1FC4ACFF1F04B004400082FF1F1C
:1018100000FEFFFF00F00240D4ACFF1F0084FF1F5A
:10182000C11400001B80004022F00240024A03491C
:10183000034803F001BD00BFFC89FF1F690A0000D7
:10184000BCACFF1F024A0349034803F0F5BC00BFCC
:10185000FC89FF1F690A0000DCACFF1F00207047F5
:1018600090F8392090F83800101A704790F8383006
:1018700090F839209A4205D95A1C034480F8382040
:10188000187E70474FF0FF30704700BF90F8383037
:1018900090F839209A4286BF1B18187E4FF0FF300F
:1018A000704700BF704700BF38B50546B0F85E000E
:1018B00090B195F85D301446C3F1210294420CD8E2
:1018C00005F13B001844224601F070FA95F85D30AE
:1018D000234485F85D30204638BD01201446287128
:1018E000EEE700BFB0F85E306BB190F85D30202BB2
:1018F00007D8C218013380F85D30012082F83B1010
:101900007047012303710020704700BF0023426924
:1019100080F8383080F8393080F85C3080F85D30FD
:1019200080F85E3080F85F3006CA30B40D68046914
:1019300043662A4383660A60A370426990F8613067
:101940001649146813441D7A5B7B01EBC5051B0225
:101950006D6803F4E06343F064032B6090F8623039
:1019600013449D7CDB7D01EBC5011B02496803F438
:10197000E06343F064030B6021685368194205D0AB
:10198000036927225A70036904229A71036920228D
:101990005A71036980229A7030BC7047A85F0000BA
:1019A00010B50269D378DBB2D90604463DD51021C3
:1019B0005806D17038D503F0040303F0FF02002B62
:1019C00051D03D49626E00230B7084F85D30002ACF
:1019D0005BD0904794F85D30002B56D02369D0221D
:1019E0009A70236994F83B201A712369012284F8C4
:1019F0005C200222DA7010BD304B84F860009C42FB
:101A00004AD02F4B9C4252D094F8391013791F2999
:101A1000DBB207D82848007820B16018013184F87B
:101A2000391003760223D37010BD5906C3D49178C0
:101A300001F0100101F0FF000029DDD013F00103D7
:101A40001ED194F85C1094F85D00884281BF4B1C55
:101A5000091984F85C3091F83B3013712369D02266
:101A60009A702269DEE7236984F83920C0229A70CF
:101A70002369114A1979012111700222DA7010BD0F
:101A8000C023937022691379CCE70122002384F8E4
:101A90005D2084F83B30A1E7626994F86130094920
:101AA00013440322187A01F065FB2269ACE76269EE
:101AB00094F861300449F3E7E4ACFF1F008AFF1F8C
:101AC0006C8AFF1F291B0000351B00000369DB78AF
:101AD00003F0200373B190F860300133DBB2012BC7
:101AE00080F860301AD9426990F861301344187A4E
:101AF00001F0BCBB70B5426903F0FF0590F861309E
:101B000013440446187A01F0B1FBA36E5BB184F86C
:101B1000385094F83900BDE87040184790F85F30AD
:101B2000002BE0D0704770BD0148FFF7CFBF00BF6A
:101B3000008AFF1F0148FFF7C9BF00BF6C8AFF1F63
:101B40002DE9F047374FDFF8E0903B68026982B03B
:101B500006460093DDF800800021A025D3789B067F
:101B60005BD53B680193019BC8EB03030F2BF5D9B1
:101B700049B1102BF2D000209070336980229A7006
:101B800002B0BDE8F087726996F861301344052110
:101B9000187A01F0D5FB726996F86130134401217F
:101BA00093F812A0504601F0CBFB092400215046C7
:101BB00001F0B2FB2B46013BFDD10121504601F063
:101BC000ABFB2B46013BFDD1013CEFD1706996F890
:101BD000611001444FF4A0720C7A4B7B09EBC401F5
:101BE0001B02496803F4E06343F064030B6096F85A
:101BF00062300344997CDB7D09EBC1011B0249681B
:101C000003F4E06343F064030B60013AFDD13269F1
:101C1000D3789B064FF00101A3D4012002B0BDE8A8
:101C2000F08700BF08B1FF1FA85F0000F0B503698F
:101C30001222DA700269937803F0200385B004461B
:101C40000D46002B5ED0B42393703C4922690B688B
:101C50000093009E05E00B680193019B9B1B042BE6
:101C600042D8D37803F0200303F0FF00002BF2D01A
:101C700094F85D30002B31D04FF0000E4FF0020C85
:101C800004EB0E0393F83B3013710B680393039F2F
:101C9000206907E09B060DD50B680293029BDB1BB6
:101CA000052B28D8C378DBB203F0020202F0FF064E
:101CB000002AEFD080F803C02669F378DBB2DF0694
:101CC00032462DD49F062BD5DB0731D40EF1010E01
:101CD00094F85D305FFA8EFE7345D1D800201DBBAD
:101CE000002384F85E3004E09070236980229A70AB
:101CF000042005B0F0BD86702369802204209A700C
:101D000005B0F0BD03F0FF06FFF71AFF10B904207D
:101D100005B0F0BD236984F85F60B0229A7094E743
:101D20008023B3700420DAE726698023B370D7E7F5
:101D3000BEF1000F0CBF02200320F6E708B1FF1F21
:101D40000148FFF72DBE00BF008AFF1F0148FFF7C3
:101D500027BE00BF6C8AFF1F10B4047F4160022CB5
:101D6000C26002D010BC02F0EDBA836810BC184704
:101D7000F0B4464B464A186BDC6A0179117045494C
:101D800022790A709A6A00790870002A46D0596848
:101D9000C9688A423ED82168CC8B240402F1FF3006
:101DA00065D4C0F30E00C883C88B80B2C882196B9B
:101DB0000968C88B000452D4C2F30E00C883C88BD4
:101DC000002480B212F1FF32C88218BF01229C6247
:101DD000D96A2E4809680D6800F12404A54236D05E
:101DE0000068C46814F0804F0C680D6815BF248823
:101DF00024780235013544F000440D604463196BCA
:101E0000254B09791970214912B1CA6A12791A70E1
:101E1000F0BC7047521A9A620122D9E7586B1968D0
:101E200005681E4C0A63CC62CC682D681C4E24F0F9
:101E300080440327B542CC6083F825701FD1037F0F
:101E40004260022BC2601ED0F0BC02F07BBA016877
:101E500090F82400CC6840F000404863CFE7CC8B7A
:101E6000C2F3080004F47E442043C883A7E7CC8B68
:101E7000C0F3080004F47E442043C88394E72B4653
:101E80001146F0BC18478368F0BC1847D88AFF1F7A
:101E90001F8000401C8000401B80004000000FFF9E
:101EA000591D00005E2913D830B44D0900EB85049C
:101EB00001F01F01E368012202FA01F123EA0101A6
:101EC000E16021B9C37AAA4023EA0202C27230BC9F
:101ED000704700BF704700BF10B582B002AB026808
:101EE00003F8011D546819460122A04702B010BD35
:101EF000C06938B18369C06847F6FF72181A90420A
:101F000028BF1046704700BFC36910B504463BB1F7
:101F100000201871E06900F0DFFAE3691B791BB15A
:101F200001232371002010BD10BD00BFC06978B12E
:101F300000B583B001220DF1070100F003FA01287A
:101F40000CBF9DF807004FF0FF3003B05DF804FBB5
:101F50004FF0FF30704700BFC369C3B110B582B006
:101F60000446012218460DF1070100F0EBF90128A3
:101F700003D04FF0FF3002B010BDE0699DF807407C
:101F8000C168013900F070FA204602B010BD184651
:101F9000704700BFC06908B100F098BA704700BF31
:101FA0004FF47A7204498260002201600271027368
:101FB000C2614273704700BF745F0000704700BF8A
:101FC000C06908B100F0BEB9704700BFC36953B122
:101FD00010B50446184600F0A5F9E06903F06EF963
:101FE0000023E36110BD7047064B074ADA62022105
:101FF000002259609A7083F8242083F8302083F8F7
:1020000032207047E8ACFF1F985F000070B50F4C9E
:1020100023780BB9012070BD0D4B0E4D196828684F
:102020000D4A00F047FD70B10C4E316819B900231C
:102030002370012070BD2868074A00F03BFD10B1F5
:1020400000233360F3E7002070BD00BF44AFFF1FE3
:10205000108BFF1F40ADFF1F44ADFF1F3CADFF1FA6
:1020600070B50D4D2B6883420E460ED00446FFF727
:10207000CDFF08B9002070BD084B094A18682146F9
:1020800000F052FC0028F5D02C60064B1978314343
:102090001970012070BD00BF108BFF1F40ADFF1FE6
:1020A00044ADFF1F44AFFF1FF8B590F82030C4695E
:1020B000102B1A4B05460E4617461B6816D004EB2C
:1020C000D1149C4216D106F07F06154A42F82670BC
:1020D0001449287E0A78012842F001020A7018D9B2
:1020E000A968114A0B4413600120F8BD04EB1124C8
:1020F0009C4208D000212046FFF7B2FF50B195F86E
:102100002030102B07D1F6B2054A234622F816706C
:10211000DEE70120F8BD2346D5E700BF108BFF1F87
:1021200044ADFF1F44AFFF1F3CADFF1FC368013329
:102130008B4218D370B590F82030102B154B044605
:1021400016460D46C0691B680FD000EBD1109842AF
:102150000FD105F07F01104B53F8213023F070436D
:102160003360012070BD0020704700EB11209842C1
:1021700007D00021FFF774FF50B194F82030102BE6
:10218000E7D1E9B2044B33F811303360012070BD60
:10219000002070BD108BFF1F44ADFF1F2DE9F04FD5
:1021A000176883B06FB301374FF0000AC36803F1BB
:1021B000010813B38B46064691463C46002505E0D0
:1021C0001C461F46F3680135AB4216D9A04538BFFF
:1021D0000224214601AA304638BF2746FFF7A6FF52
:1021E000631CD91B48B1019A002AE9D18B4510D054
:1021F0001C46F3680135AB42E8D8002003B0BDE8C7
:10220000F08FA1F1010ABAFA8AFA07684FEA5A1A5E
:10221000CCE7012CF1D9F36801339C42EDD86FF083
:10222000704221463046FFF73FFF0028E5D0A74225
:1022300014D2013C012CE0D9F36801339C42DCD874
:10224000621C21463046FFF72FFF0028D5D0A74259
:1022500004F1FF3402D0012CEED1CEE7D9F8001002
:1022600059B10129C9D9F36801339942C5D83A4611
:102270003046FFF719FF0028BFD0C9F80070BAF147
:10228000000F01D0013737600120B7E738B590F96A
:102290000530002B03DBBDE83840FFF7B7BE04462E
:1022A00001210069FFF7DCFEF8B1257D104B13EB2F
:1022B00045151AD0A3790F4A012B9CBFA369EB6186
:1022C000E36912686B831B0CAB8232B105F1160116
:1022D00005F1180090472B8B6B82637903F07F0325
:1022E0006371BDE83840FFF791BE002038BD00BFE4
:1022F00044ADFF1F48AFFF1F10B500F108020446B0
:102300000121006AFFF74AFF50B1E3693BB96379E5
:10231000A268E26163F07F036371012010BD0120B8
:1023200010BD00BF82790AB90020704710B504467D
:10233000FFF7ACFF18B10023A371012010BD0020EE
:1023400010BD00BF837913B94FF0FF3070472DE9FE
:10235000F04F8B464179C90783B0054658D5C1680F
:102360008469641A944228BF144626460194002CBE
:1023700064D01A46022ADFF8E890384FDFF8E4808C
:102380002A6AC1F3080A3FD01479013C04EA5124B7
:10239000E4B2BAF1000F5ED1002C5CD1002951D11A
:1023A000E969A960107C5269023981401444081916
:1023B000CAF500746A79B442A8BF344653062CD4D7
:1023C000B4F5007F29D00021FFF74AFE00B30AEBE5
:1023D000090E0EEB040086450BD00BF1FF3273465D
:1023E00013F8011B02F8011F9842F9D1CEEB00004F
:1023F0008344E968361B2144E9601FD0AA79022A88
:10240000C1F3080A2A6ABFD1506A00EB5120CFE716
:102410004FF0FF3003B0BDE8F08F3A689042D2D061
:1024200001465A46D8F8000000F07EFA0028EFD0A6
:10243000E968361B2144A344E960DFD1019803B069
:10244000BDE8F08F1046A96805F10802FFF76EFE9F
:102450000028DDD02A6AA968A4E700BF108BFF1FFF
:1024600044ADFF1F40ADFF1FF8B5837913B18269FA
:102470008A4201D20020F8BD022B0F4605461AD031
:1024800007B32B6AE9681C7C4A1E04F109037C1E11
:10249000DA40DC40A24211D9EB69AB6005F10806D5
:1024A00006E0A968286AFFF741FE013C0028E1D058
:1024B0003246002CF5D1EF600120F8BD0029EBD0A9
:1024C000A41AEBE7AF60EF600120F8BD83790BB190
:1024D000FFF7DCBE184670472DE9F04F8B46817937
:1024E00085B001290746019205D001233B710020E8
:1024F00005B0BDE8F08F42799107F6D5530708D5AE
:10250000FC68B9698C4200F0A880FFF7ADFF002895
:10251000EBD0019BFC68002B49D0DFF88C91DFF8F1
:102520008CA1DDF80480386A0679013E06EA54265B
:1025300016F0FF06C4F3080442D1002C40D1B9685C
:1025400000296FD1FA69002A7ED0BA60C4F50075FF
:10255000ADB245453AD9057C4169023AAA400E44DC
:1025600016441FFA88F51CB9F868BA6990424CD233
:1025700030460121FFF774FD0028B6D04C4404EB2F
:10258000050E74450DD00BF1FF31621E0EF1FF36C2
:1025900011F8010F02F8010F9642F9D1C4EB0E04B5
:1025A000A344FC68B8EB05082C44FC60BBD1BB69B4
:1025B000A34257D27A79BC6142F080027A715AE024
:1025C000C4F50075ADB24545BA68C4D8017C406910
:1025D000023A8A400644B5F5007F1644C3D1DAF8C2
:1025E0000020964204BF4FF0FF32CAF800202A4A6A
:1025F000314610685A4600F05DFA00283FF475AF86
:102600000BF5007B4FF40075CBE7FFF7FFFC0028CC
:102610003FF46BAF2149CAF800600A7842F001022A
:102620000A70ABE703AAFFF781FD00283FF460AF13
:10263000386A1B4B90F82050039A4FF6F871102D12
:1026400018BF19468A4280D33846FFF755FE002846
:102650003FF44BAF386ABA6878E7019B002B7FF4F0
:102660005CAF08E00F4B7A791B6823B1019B13B173
:1026700042F080027A71120709D5BB79002B3FF432
:1026800034AF3846FFF702FE00283FF42EAF019822
:1026900005B0BDE8F08F00BF40ADFF1F44AFFF1F86
:1026A000F8FFFF0F48AFFF1F44ADFF1F108BFF1F48
:1026B00000B583B002AB012203F8011D1946FFF7F4
:1026C0000BFF03B05DF804FB10B50121007800F0AA
:1026D00023FE0E4A137893B10D49CB7A0024184695
:1026E000147063B1DC0703D50A4A88691060184684
:1026F0009A0705D4430702D5074B0A6A1A6010BD32
:10270000064BCA69C87A1A60F4E700BF50AFFF1FD2
:10271000D88AFF1F00E100E008E100E004E100E0EA
:102720001E4B1A781AB10078002100F0F5BD70B484
:102730001B4A1C49D47A096801251D70ECB172B698
:10274000D37ADE071C4606D5174DD4682E68344070
:1027500094612C601C469D0706D5144D13692E68A4
:10276000D47A3340D3612B60630705D5104C53698D
:1027700025682B401362236062B61368DA688A42C8
:1027800007D00C4C1C600C4AD96041F080441C619D
:102790001A600078002170BC00F0BEBD50AFFF1F72
:1027A000D88AFF1F4CAFFF1F80E100E084E100E00A
:1027B00088E100E001403F0000003F80F0B4124893
:1027C000124A036882B016460093009F4FF00045FE
:1027D000FF24136843F480631360D5625463D36AA3
:1027E000002BFCDAB36BDBB2FF2B09D0036801933B
:1027F000019BDB1B8B42ECD3002002B0F0BC704786
:10280000012002B0F0BC704708B1FF1F00C00240B9
:10281000F8B50D464FF4967116460446FFF7CEFF05
:10282000284B1A684FF0004042F4806245F04001A6
:102830001A60D8621A465963D36A002BFCDA214920
:1028400018204FF000470A6826FA00F342F480622D
:10285000DBB20A60CF624B63CB6A002BFCDA08382C
:1028600010F1080FEFD155B3082D0CBF8721FF21C0
:10287000144B1A684FF0004042F480621A60D8622C
:102880001A465963D36A002BFCDA0E4A0027164613
:102890004FF00045FF21136843F480631360D56255
:1028A0005163D36A002BFCDAB36BD8B21B0660709D
:1028B00000D4F8BD0137B7F5807FECD1F8BD952184
:1028C000D6E700BF00C00240F0B41549154A0B68B6
:1028D00082B016460093009F4FF00045FF24136816
:1028E00043F480631360D5625463D36A002BFCDA2F
:1028F000B36BDBB2FF2B43700AD10B680193019BD2
:10290000DB1BB3F5967FEAD9002002B0F0BC70471C
:10291000A3F1FE00B0FA80F0400902B0F0BC7047AD
:1029200008B1FF1F00C00240F8B58378032B0E46A4
:10293000044618BF4E021546FFF7F2FE324611213B
:102940002046FFF765FF18B92046FFF7BDFF20B905
:102950002046FFF7B9FE0020F8BD204B2049214A50
:102960001A608E4659631A4659631E46596305F527
:10297000FD70A91C05F5FE77D36A13F0F00FFBD0AC
:10298000C6F834E0B36B01F8013C1B1201F8023CBD
:1029900002318F42F0D105F50075A8420DD20F4AE1
:1029A0001646D36A13F0F00FFBD0B36B191200F880
:1029B000021BA84200F8013CF3D3084B0949084A1E
:1029C000196019465A63CB6A044A13F0F00FFAD023
:1029D0002046936BFFF778FE0120F8BD00C002404F
:1029E000FFFF009000041F80F0B4314E33684FF0B9
:1029F000004743F4806333603D46F76234467163B9
:102A00003346511C02F20127E26A002AFCDA1A68F6
:102A100011F8016C42F480621A60DD625E63E26A62
:102A2000002AFCDA1A6811F8026B42F480628F42C5
:102A30001A60DD625E63E7D11D49CA6A1C4B002A39
:102A4000FBDA1A684FF0004542F48062FF241A60F6
:102A50001946DD625C63CB6A154A002BFBDA13680A
:102A60004FF0004543F48063FF2413601146D562A4
:102A70005463CB6A0E4A002BFBDA13684FF0004513
:102A800043F48063FF2413601146D5625463CB6A1C
:102A9000074A002BFBDA936BDBB203F01F02437093
:102AA000A2F10500B0FA80F04009F0BC704700BF09
:102AB00000C0024070B5044671B18378032B0D4607
:102AC00018BF4D021646FFF72BFE2A461821204656
:102AD000FFF79EFE054620B12046FFF7F5FD0020DA
:102AE00070BD3246FE212046FFF77EFF0028F3D05E
:102AF0004FF416712046FFF761FE0028ECD02A46FD
:102B00000D212046FFF784FE0028E5D10B4B1A6803
:102B10004FF0004542F48062FF201A601946DD62E2
:102B20005863CB6A054A002BFBDA936B13F0FF0F57
:102B3000D2D12046FFF7C8FD012070BD00C0024081
:102B4000014B024A1A6070474CAFFF1F0110013859
:102B5000024BC9B200225970DA70704754AFFF1FA0
:102B600010B54D4A4D4B4E4C12781E221A706078AB
:102B700000F0D8FBA3680133A3602379642B84BFE2
:102B8000062323702378023B042B09D8DFE803F0E7
:102B900040471C5B03000122052384F8A021237019
:102BA000E3781BB318BBA3783D4A002B5CD13D4AA8
:102BB0003D4B202111601B6813F0050F16D13B4BD4
:102BC00040F203121A6010BD002840D12379DBB215
:102BD0005A1CD2B20233227104EB8303A2685A60FA
:102BE0000323A0602370E378002BDCD110BDA37811
:102BF0002B4A002B32D12E4A2B4B202111601B680F
:102C000013F0050FF2D1294B4FF480721A6010BDFA
:102C1000A8B9A268224B632A2CD89860E3E7012860
:102C2000BED12379DBB25A1CD2B20233227104EB3B
:102C30008303A2685A6000220423A2602370E37811
:102C4000002BD4D110BD0028F9D1A060CBE7A36838
:102C5000134A642BF3D905231370F0E79078002111
:102C6000BDE8104000F058BB90780121BDE810404D
:102C700000F052BB83F8A00118711A79D2B2511C2E
:102C8000C9B20232197103EB8202996851600322C2
:102C900098601A70A7E700BF05200640072006408D
:102CA00054AFFF1F84F00F4094F00F4014B0044065
:102CB00088F00F402DE9F04F00F5807EB1E8A00AC2
:102CC000B2E84015C5EA0643C6EA2544C7EA084506
:102CD000C8EA2746C9EA0A47CAEA2948CBEA0C49A2
:102CE000CCEA2B4AA0E8F8078645E7D1BDE8F04FCB
:102CF00070474FF000022DE9F00F00F5807C00BF17
:102D0000B1E8A00AC5EA0203C2EA2544C7EA0205FF
:102D1000C2EA2746C9EA0207C2EA2948CBEA020901
:102D2000C2EA2B4AA0E8F8078445E9D1BDE8F00FD4
:102D300070474FF000022DE9F00F00F5807C00BFD6
:102D4000B1E8A00AC2EA0543C2EA0504C2EA07459F
:102D5000C2EA0706C2EA0947C2EA0908C2EA0B4901
:102D6000C2EA0B0AA0E8F8078445E9D1BDE8F00FF4
:102D700070472DE9F00F089C00F5007B51F8045BCB
:102D800053F8046BC5EA0647C6EA254952F8045BC6
:102D900054F8046BC5EA0648C6EA254AA0E880074D
:102DA0008345EBD1BDE8F00F704700BF844641EA90
:102DB000000313F003036DD1403A41D351F8043BB3
:102DC00040F8043B51F8043B40F8043B51F8043B05
:102DD00040F8043B51F8043B40F8043B51F8043BF5
:102DE00040F8043B51F8043B40F8043B51F8043BE5
:102DF00040F8043B51F8043B40F8043B51F8043BD5
:102E000040F8043B51F8043B40F8043B51F8043BC4
:102E100040F8043B51F8043B40F8043B51F8043BB4
:102E200040F8043B51F8043B40F8043B51F8043BA4
:102E300040F8043B51F8043B40F8043B403ABDD213
:102E4000303211D351F8043B40F8043B51F8043BB5
:102E500040F8043B51F8043B40F8043B51F8043B74
:102E600040F8043B103AEDD20C3205D351F8043B44
:102E700040F8043B043AF9D2043208D0D2071CBF10
:102E800011F8013B00F8013B01D30B880380604639
:102E9000704700BF082A13D38B078DD010F00303AF
:102EA0008AD0C3F10403D21ADB071CBF11F8013B1F
:102EB00000F8013B80D331F8023B20F8023B7BE76E
:102EC000043AD9D3013A11F8013B00F8013BF9D299
:102ED0000B7803704B7843708B7883706046704733
:102EE000044B054A1B6890881BB11A885B88D31A6B
:102EF0001844704700B1FF1F14B4FF1F38B50E4BC4
:102F00001B7873B90D4C216861B103F0FF054B8844
:102F10000B80042000F082FB256038BD084B0122A5
:102F20001A7038BD00F0D0FA0028F7D00146BDE88D
:102F30003840042000F072BBF9B0FF1FFCB0FF1F47
:102F4000F8B0FF1F30B42948294A2A4B2A4D602483
:102F5000E121047011701B78284C082B30D00A2B0B
:102F60002748284937D00C2B0CBF35223D2212238D
:102F70002A60236002600B60234B24491B78244A9B
:102F8000BBB101230B601360224B23491B78234AFA
:102F9000012B26D9042B0FD9082B1ED9102B94BF37
:102FA000862387230B6013601D4B01221A7030BCEF
:102FB00070470B601360E7E784230B601360F3E74F
:102FC00000F58E200F490830012213232A60236068
:102FD00002600B60D0E73922F7E785230B601360AE
:102FE000E2E780230B601360DEE700BF004007408C
:102FF00001400740148BFF1F08B003400CB0034092
:1030000008B00B400CB00B4006B1FF1F20B00340CE
:1030100020B00B40158BFF1F24B0034024B00B40A1
:1030200005B1FF1F08B5104C08E0236859050DD401
:1030300023681A050FD42368DB0411D423685803CE
:10304000F3D500F02DFB23685905F1D501F008FDFB
:1030500023681A05EFD501F06DFC2368DB04EDD57C
:1030600001F0FCFDEAE700BF3480044008B5FFF73B
:10307000D9FF00BF014B10221A8070470020054085
:10308000704700BF094908B50B6830B16A4618445B
:10309000A2F58052904202D20860184608BD02F0A4
:1030A000D7F80C2303604FF0FF3008BD188BFF1FCB
:1030B000FEE700BF704700BF10B40F4B53F830203D
:1030C00092F880422CB1012369B182F8803010BCA3
:1030D000704703EBC0035B681A6841B922F0020233
:1030E0001A6010BC704782F8003110BC704742F083
:1030F00003021A6010BC7047A85F00001C4A02EB74
:10310000C00301295B6811D004291BD052F830009C
:10311000002280F8802229B1022920D0032922D060
:103120001A6070474FF480721A60704752F830008E
:103130004FF4A27280F880121A601A6822F02002FE
:103140001A60704752F830104FF4A272012081F8D3
:1031500080021A601A6842F020021A60704740F23A
:1031600003121A6070474FF481721A60704700BFF3
:10317000A85F0000212848D8F8B5042A44D8DFE821
:1031800002F0484B4E0345004FF410262B4B03EB47
:10319000C0030D465C68216811F4E06148D0284BFB
:1031A000284A2949C3F89C2104F140422748C3F822
:1031B000A411A2F59221264FC3F8A0017C2925482D
:1031C000C3F8A871C3F8AC012CD9A2F594237C2BC9
:1031D0002AD9A2F596237C2B28D9A2F598237C2BFB
:1031E00029D9A2F59A227C2A27D81B4872B62368CF
:1031F00023F4702343F08072C4F3840116432360E8
:1032000040F82150266062B6F8BD70474FF4302672
:10321000BCE74FF40026B9E74FF44026B6E74FF479
:103220002026B3E70D48E1E70D48DFE70D48DDE76D
:10323000FFF764FFB3E70C48D8E7F8BDA85F0000CC
:103240000084FF1FD189FF1F7989FF1FA589FF1FF8
:103250004D89FF1F2189FF1FF48BFF1F1C8BFF1F50
:10326000548BFF1FA48BFF1FD48BFF1F1A4B03EB44
:10327000C00010B4426802F14043A3F592217C29BA
:1032800023D9A3F594217C290DD9A3F596217C2976
:103290001FD9A3F598217C2919D9A3F59A237C2B52
:1032A00011D80E4C00E00E4C72B613680D4823F096
:1032B0008773C2F3840123F4803343F08073136077
:1032C00044F8210062B610BC7047074CECE7074C8D
:1032D000EAE7074CE8E700BFA85F0000F48BFF1F98
:1032E000548BFF1FB53000001C8BFF1FD48BFF1FBA
:1032F000A48BFF1F30B4054B054D064C0022102156
:103300001A602A602060196030BC704714D00340F6
:1033100004D0034000D00340212801D8FFF7CCBEE1
:10332000704700BF212806D8044B53F8303093F87B
:103330000002C0B270470020704700BFA85F0000C5
:10334000212801D8FFF7DABE704700BF2DE9F84306
:10335000054672B6204F214B214A1B683C68126813
:1033600062B6520102D5322B88BF013495B3C3F542
:10337000BB331C4EDFF86490DFF86480FF334FF4FA
:103380007A72A6FB031302FB04F404EB931472B6E7
:10339000D9F800103A68D8F800E062B6C1F5BB333E
:1033A000FF33A6FB03031EF0806FC4EB93134FF4AF
:1033B0007A7002D0322988BF013200FB0233B3F5A4
:1033C0007A7F04D3013D05D004F57A74DFE701F07C
:1033D000A5F8DCE7BDE8F88308B1FF1F18E000E0BE
:1033E00004ED00E0ABAAAAAAF8B52D4B2D49DFF8F1
:1033F000D0E0DFF8D0C02C4E2C4D2D4C2D4A2E4F56
:103400004FF4000018604FF0807018604FF00070AB
:1034100018604FF0806018604FF000601860002066
:10342000086028234BF6FF71CCF80010CEF800306E
:10343000336013602B6023603B60B36293620922A8
:1034400045F8242CC4F8D80F05F57F65C7F8D41FBC
:1034500007F5FF2707F5FA67C6F8F83F2B6006F572
:10346000FF26C4F8D42F05F5FD2504F5FF243860A8
:1034700006F2F4761148316005F5FF6504F5FD6448
:103480002B6023600260FFF75DFD1920FFF75EFFF0
:1034900000F06EFE40F21310BDE8F840FFF756BF93
:1034A00008E100E0048003401480034024800340CE
:1034B0002C8003401C8003403480034000800B407C
:1034C0000C8003400880034072B60D480268B2FACF
:1034D00082F30B2B10DC4FF00041D94022EA0102AD
:1034E000026062B6074803EBC303DB00C218002189
:1034F000C15010465160704762B60020704700BF4F
:10350000FC8BFF1FBC85FF1F0D4B0E4AC31AA2FB8D
:1035100003231B090B2B0CD80B4A127852B972B635
:103520000A484FF00041026821FA03F31A4302608F
:1035300062B67047064A1278002AF0D000F00AB846
:10354000BC85FF1F398EE338E1B1FF1FFC8BFF1FE5
:10355000ECB1FF1F30B472B62B4A13781D0706D5A5
:103560002A4B196A002936D0996A002941D053782C
:103570001C0706D5254B196C00293ED0996C0029F3
:1035800039D09378190705D5204B196E002936D00C
:10359000996E89B1D3781B0707D51C4BD3F88020CF
:1035A0007AB3D3F8882011213AB162B6184B0022C1
:1035B0001A7030BCFFF7A8BF0D21154C154D2278AD
:1035C00043F8315003EBC1030830013A58602270D0
:1035D00062B630BC704704220D4C0F4D217843F881
:1035E000325003EBC20308304A1E5860227062B6A4
:1035F000EFE70521E1E70921DFE70822ECE70C22EC
:10360000EAE71022E8E700BFB86000000080FF1F73
:10361000E1B1FF1FC800400088004000431E032B9B
:103620001DD81B4A400140F0100030B4104472B65F
:10363000184CE25C032A1BD8DFE802F002121517CF
:1036400003220D88E25410F0080F14BFC82388230A
:1036500043EA054308310360416062B630BC7047FD
:1036600008300222EDE70522EBE708300422E8E704
:10367000094A52F8230038B1084A52F82300416041
:1036800042F8231062B6E9E742F82310034AF7E74D
:103690000080FF1FF0B1FF1FB8B1FF1FC8B1FF1FAF
:1036A0002DE9F04FDFF80CB3DFF80CA387B044E04E
:1036B000AB4F4FEA930807EBC809013ED9F8042045
:1036C00003F00803F6B2A2F1080003F0FF04002B98
:1036D00040F0028157F838301B0C99B222F8081CD0
:1036E000002B00F0F0809F4B22F8064C42F8044C6F
:1036F00053F82620002A00F0C5829B4D55F826304D
:1037000058609A4C45F8260034F81630194424F8CD
:103710001610FFF7D9FE002800F0AD82944A954BB1
:1037200019F0080F00F1080018BF1346C9F804008B
:1037300047F8383008238BF800309BF80040E4B29B
:1037400061071AD58C4B1B78A3B18C490A7802F01B
:10375000FF0322B1013BDBB20B7003B900BE884905
:103760000A7802F0FF032AB1013BDBB20B70002B99
:1037700000F0578204238BF8003004F0080303F0B4
:10378000FF02002B00F0CC809AF80030DBB21E095B
:103790008ED19C08DFF8C89159F8342009EBC40198
:1037A000C2F38302013A49680C2A00F28880DFE8FC
:1037B00002F07C7C8686868686864786868607001B
:1037C0000868704D4A68704F704E286081B240F2B0
:1037D0008160674B6A604FF0010E0022814249F818
:1037E00034303A60C9F81020C9F8182086F800E093
:1037F0005B4C00F2E380B1F5D06F80F04683B1F509
:10380000817F00F0FC8200F28D82802900F07783B6
:10381000822940F0FA82A98801F07F01042900F290
:10382000F4825B485B4C8900084422706270027825
:10383000930740F1588484F800E04FF0020E42E311
:10384000514F3A6832B3544B504E5449188834782B
:103850000D784028864645F0020828BF4FF0400EFC
:10386000002C84F001043470CEEB00000CBF8824DF
:10387000C82409EBC80680B285F0010544EA0E446D
:103880007260188049F8384072440D70002800F0CA
:1038900045813A603B4B1A88B2F5A06F0FD10021E9
:1038A0009A7859703E4B1A7009E0364A108842F2F5
:1038B0002102904200F037812D4A49F83420394ADC
:1038C0000123137036E72A4A2A4B19F0080F18BF54
:1038D000134647F838302DE7FFF716FE324A3349D2
:1038E00052F82630002B00F0D18158688C5D42F8E8
:1038F000260003F10802C9F80420032C05D8DFE8EC
:1039000004F02C02292602228A551A8819F0080F81
:103910000CBF8823C82343EA024347F8383009E73D
:10392000E00700F18181210600F1F281A20706D5AE
:103930001F4A204913780220DBB213700870E30697
:1039400002D51C4B10221A7007B0BDE8F08F04227C
:103950008A55DAE705228A55D7E703228A55D4E744
:103960000080FF1F64B1FF1F10B1FF1F14B4FF1FC1
:10397000C800400088004000ECB1FF1F75B1FF1F78
:10398000F8B0FF1FD8B1FF1F0CB1FF1F74B1FF1FAC
:10399000C0200740E4B1FF1F20B1FF1FE0B1FF1FAF
:1039A0009820074094200740B8B1FF1FF0B1FF1FD7
:1039B00088200740802007409020074042F22100E5
:1039C000814200F02A8100F2D880B1F5086F00F042
:1039D0007682B1F5106F40F01882226AB349A87858
:1039E0000870120600F13A83D9F82820B04913066E
:1039F00000F10C83D9F83020AD49150600F10183A0
:103A0000D9F83820AA49140600F1F682D9F84020E6
:103A1000A749100600F14A83D9F84820A4491206A4
:103A200000F13F83D9F85020A149130600F13483F7
:103A3000D9F858209E49150600F12983D9F860204D
:103A40009B49140600F11E83D9F868209849100696
:103A500000F11383D9F870209549120600F108830C
:103A6000D9F878209249130600F1FD82D9F8802018
:103A70008F49150600F13183D9F888208C49140646
:103A800000F12583D9F890208949100600F11983A7
:103A9000D9F898208649120600F10D838548864A98
:103AA000864901908648874D874C049700230596E8
:103AB000029580460F4616461D460394306828B18D
:103AC0004468FFF721FD2046002CF9D10023336024
:103AD000029B38681A46002342F8253028B1446812
:103AE000FFF712FD2046002CF9D100223A60019A1E
:103AF00098F800301146002241F8042B039A0191F6
:103B0000023B4FF0000122F81510032B00F22B812D
:103B1000DFE813F07001250170012501BEF1400FAF
:103B200018BF0022B5E6694A0D78487815705070C4
:103B30008D78C8789570D07010680D7915718628C9
:103B40004D7989795571917100F09B816049614E81
:103B50000A78307882F00105002842F002020D70E8
:103B60000CBF8821C82149F8321009EBC20280F04D
:103B700001000021307051609EE642F22120814216
:103B800040F0CB81544B554C5549A8781D682560B1
:103B9000CDF804E008700020029080468446044678
:103BA0004B490D7845F0020E09EBCE030393019BC0
:103BB000002B039B5C600CBF8824C82444EA0803E4
:103BC00085F0010449F83E3032700C70DFF8E0E017
:103BD000404BDFF8FC80002840F01E81BCF1400F14
:103BE0001BD144F0020C09EBCC03029CDFF8C0E0CF
:103BF0005C60002A40F02681020442F088029DF8B1
:103C000004304EF83C20044433700D7023464028A5
:103C100003D10020334A3B601080334A01231370E4
:103C20004DE6FFF76BF9A5E5214B2F4828491A61AE
:103C30004FF0020E80F800E02C4F0A702C491960FA
:103C400099602C4E2C4D2D4C9A610D213970FF211D
:103C50003170DFF8B8E029702270294D294A8EF8BA
:103C600000109F27012406F8047C5D600470DA6070
:103C700007B0BDE8F08F244A47F8380013780133C5
:103C8000137057E543F826000E4D3AE58B5D032B84
:103C900000F2F08001A252F823F000BF3537000097
:103CA00035370000593D0000533D0000ECB1FF1FC7
:103CB0000080FF1FC8B1FF1F64B1FF1FB8B1FF1F15
:103CC000F0B1FF1F10B1FF1F14B4FF1F08B4FF1F96
:103CD000E0B1FF1F74B1FF1F08B1FF1F10B4FF1F39
:103CE00004B1FF1F20B1FF1F94200740C0200740F0
:103CF0008800400088200740802007409820074027
:103D000024B1FF1F78B1FF1FE1B1FF1F8C200740D6
:103D1000C149C24B80220D2008701A70A2077FF59E
:103D20000EAE05E640F20232914240F0EE80A988E4
:103D300001F07F01042968D86A88002A65D1B64855
:103D4000CDF804E089000844017841F002010170D7
:103D500021E701238B55EDE400238B55EAE44FF076
:103D6000010388F800300135042D06F1040607F13F
:103D7000040708F101087FF4A1AEA94CA94B2278F1
:103D8000A94D049F059E002129701A70130700F1A8
:103D900005816278A549DFF8A0820A7010074FF00C
:103DA0000001C9F83010C9F8381000F1E080A049CE
:103DB000A2780A700021C9F85010C9F858101107EC
:103DC000DFF8748200F10181E2789A499A4C0A7016
:103DD00000211207C9F87010C9F8781000F1B080FE
:103DE00033780193002183F00102C9F89010C9F8DB
:103DF0009810D0E64FF0000388F80030B3E7A988A8
:103E000001F07F01042940F28D80834A0F23137053
:103E10008A4A0123137052E540287FF6E2AE44F04F
:103E200002040EEBC401029E4E60BAB19DF804106C
:103E3000834A19703346403888F8005040334EF8B2
:103E40003420E7E69DF8043033700204029B0D70C5
:103E500042F0C80203444EF83C20D8E69DF8041016
:103E60001970029B774A88F80050403840334EF86A
:103E70003420CFE619F0080F0CBF022303238B5523
:103E800058E4714A0F21117060E6704A5468002CA2
:103E9000BBD06888B5F804E003E00C325468002C0D
:103EA000B3D013888342F8D153887345F5D1000A03
:103EB00003280CBF94F800E0B2F808E003E0644A7D
:103EC000644C12782270E888704580F03F81624926
:103ED0000D784028844645F0020E28BF4FF0400C74
:103EE00004EB0C0309EBCE02029301235460CCEBEC
:103EF00000004FEA0C4800220193C8245EE6554CAE
:103F00004FF0020E22706270DDE7B1F5A06F7FF412
:103F10007CAF0123002201933DE642F2213291421F
:103F2000F7D072E76A88002A7FF46FAF3A48CDF87D
:103F300004E089000844017821F0020101702AE6BA
:103F4000FFF7C2FA002800F0EF8008303D4AC4F8BD
:103F50008400C4F88020FFF7B7FA002800F0DE8064
:103F60000830374AC9F88C00C9F8882038E7FFF7CD
:103F7000ABFA002800F0C0800830324AC8F844008C
:103F8000C8F84020FFF7A0FA002800F0AF80083002
:103F90002B4AC9F84C00C9F8482008E7FFF794FA03
:103FA000002800F0CD800830264AC9F82400C9F85E
:103FB0002020FFF789FA002800F0BC800830204A52
:103FC000C9F82C00C9F82820E3E6FFF77DFA00289D
:103FD00000F09E8008301B4AC8F86400C8F86020D2
:103FE000FFF772FA002800F08D800830144AC9F8F3
:103FF0006C00C9F86820E7E6C86B0838FFF784FA58
:1040000004E5486B0838FFF77FFAF9E4C86A083816
:10401000FFF77AFAEEE400BFC02007408020074097
:10402000B8600000C4200740E1B1FF1FC82007406E
:10403000CC200740D02007400080FF1F942007407D
:10404000C80040008800400075B1FF1FBC60000040
:10405000ECB1FF1FE4B1FF1FE0B1FF1F606A083839
:10406000FFF752FAC0E4C86F0838FFF74DFAFDE4D5
:10407000486F0838FFF748FAF2E4C86E0838FFF7CF
:1040800043FAE7E4486E0838FFF73EFADCE4C86D0F
:104090000838FFF739FAD1E4486D0838FFF734FAE9
:1040A000C6E4C86C0838FFF72FFABBE4486C083840
:1040B000FFF72AFAB0E4D1F89C000838FFF724FA99
:1040C000ECE4D1F894000838FFF71EFAE0E4D1F8E8
:1040D0008C000838FFF718FAD4E4D1F884000838C7
:1040E000FFF712FAC8E44FF0020EECE62A78C9F89E
:1040F000480001322A705AE62A78C8F84000013296
:104100002A703FE72A78C9F8680001322A705BE616
:104110002A78C8F8600001322A7061E72A78C9F865
:10412000880001322A705BE62A78C4F880000132E8
:104130002A7010E72A78C9F8280001322A7028E688
:104140002A78C9F8200001322A7032E7BEF1400F08
:10415000F44628BF4FF0400C04EB0C0302930123FC
:10416000CCEB0E004FEA0C480022019318E500BF8B
:10417000F8B500F0FBFC294B29482A4C2A4F2B4D5F
:10418000DFF8BCC0DFF8BCE0294E00221A605A609C
:104190009A60DA601A615A619A61DA611A625A6247
:1041A0009A62DA621A635A639A63DA631A645A6427
:1041B0009A64DA641A655A659A65DA651A665A6607
:1041C0009A66DA661A675A679A67DA67C3F88020D0
:1041D0000168C3F8842041F480210160C3F3072102
:1041E0002170C3F30740134938701B0E2B70FF2357
:1041F0008CF80030104D8EF8003010480B70012301
:10420000337084F8642070264FF40074102207F88D
:104210002C3C2E70046081F8F820F8BD0080FF1F50
:10422000348004409C200740B0200740B420074061
:10423000942007401020074049E400E008E100E036
:104240008020074088200740F0B572B699B902680F
:104250008AB103790F2B0ED8274C218841FA03F538
:10426000ED070AD503F1007303F59063B2EB431F2A
:1042700003D162B6F0BD204C2188002341FA03F23D
:1042800012F0010207D00133102BF7D162B60022E1
:1042900003710260F0BD01259D402943218062B673
:1042A000164E174D174FDFF864E0D9B2017134682C
:1042B00044F0020434602C6844F002042C60A6F53B
:1042C00080268224A5F5802503F100733C6003F568
:1042D0009063223E243D0C4C8EF800105B0131703F
:1042E0002970217003601A605A609A60DA601A615E
:1042F0005A619A61DA61F0BDF4B1FF1F4080044059
:104300003C800440008000401F8000401A80004034
:1043100003790F2B11D8094A10B4137072B60849EB
:1043200004790A880123A34022EA03030B8062B6C2
:104330001022002310BC0271036070471A800040F5
:10434000F4B1FF1F10B4EFF3108272B6437F33B99C
:10435000017F012907D003290FD00123437702B938
:1043600062B610BC7047124C2168A1B1114943617B
:104370000B68836108605861EFE70F4C216881B1D9
:104380000E4943610B688361086058610C4B4FF024
:1043900080511960E1E7074B41618161206018603D
:1043A000DBE7064B4161816120601860EEE700BFEA
:1043B00008B2FF1F04B2FF1FF8B1FF1FFCB1FF1FBF
:1043C00004ED00E070B5EFF3108272B60C4C20687B
:1043D00080B10C4E00254369236073B19D6102B921
:1043E00062B6457783689847EFF3108272B620680B
:1043F0000028F0D102B962B670BD3360EFE700BFAC
:10440000F8B1FF1FFCB1FF1FFFF7DCBF184A30B443
:104410001468002C27D0036821688B420ED2CB1A77
:1044200000218460C1602360E06010600223037596
:1044300030BC704711688B42144608D3A2685B1ADF
:104440000360002AF6D18260C460A060EEE7D26803
:10445000C2608460E060C568CB1A0222A860236055
:10446000027530BC70478460C4601060DEE700BF36
:1044700000B2FF1FF8B5224E34682CB32368002B1E
:104480003AD1204F1D4604E03468ECB12368002B7C
:1044900032D1A36803B1DD602069336003682575FC
:1044A0001B68BB4221D1037F4560022BC46020D032
:1044B000FFF748FF6368002BE6D023602046FFF734
:1044C000A5FF3468002CE1D1EFF3108372B60E4AD9
:1044D00000211068116003B962B628B18468FFF743
:1044E00095FF20460028F9D1F8BD224600219847C3
:1044F000E0E783689847DDE7013B2360E4E700BF1E
:1045000000B2FF1F591D000010B2FF1F024A1368BE
:1045100001331360FFF7AEBF08B1FF1F38B5224C5F
:10452000237803B138BD01232370FEF7D9FC70BB9B
:1045300000F086FA40BB00F0EDF910BB00F07EFB06
:10454000E0B900232370EFF30583002BEAD1EFF3EA
:10455000108172B6154B1868E0B1154C2278CAB9B3
:1045600045691D6001232370C5B1AA6101B962B616
:1045700000254577836898472570D3E700F0DCFB7A
:10458000DFE700F031F8D9E700F0D4FBD3E700F023
:1045900013F8CDE70029C5D162B638BD054B1D60C3
:1045A0000029E5D1E3E700BF14B2FF1F08B2FF1FE7
:1045B0000CB2FF1F04B2FF1F704700BFF8B50E46D4
:1045C00071B17AB10746144600253B6816F8011B05
:1045D0001B6838469847013C0544F6D12846F8BD8B
:1045E0000846F8BD1046F8BD704700BFFEE700BFA3
:1045F000F0B472B6234F244E3C8806F1180306EB44
:104600008400984212D256F8241099B9021D06F17E
:104610001B05631CAD1A03EB950503E052F8041B60
:1046200041B90133AB421C461046F7D162B60020B7
:10463000F0BC7047B1FA81F34FF00042DA4021EA52
:104640000201016001B9013410493C800A8801323D
:1046500094B20C8062B6801B8010C3EB401000EB5C
:10466000801083000A480B49006803F5FB531C3394
:104670000125C5540D88AA42184488BF0C80F0BC9F
:10468000704700BF42B2FF1F28B2FF1F44B2FF1F96
:1046900020B2FF1F1CB2FF1F428872B60378012BA5
:1046A00003D9013B037062B67047531170B40C4CD0
:1046B0000C4D54F823102E88D2434FF0004002F0E6
:1046C0001F0220FA02F21143074A44F82310B342B2
:1046D00038BF2B801388013B138062B670BC7047D3
:1046E00028B2FF1F42B2FF1F44B2FF1FC368B3B11D
:1046F00030B401E0DB688BB1187A9042FAD1586887
:104700005C7A006950F82450002DF3D140F8241051
:10471000087801300870DB68002BEDD130BC7047A1
:10472000437A8B4206D90369002253F8210043F8EB
:10473000212070470020704738B5437A8B421AD940
:10474000036953F82140002243F821209CB12378CB
:10475000012B0ED9FFF74CFF054628B14FF48072AC
:10476000211D0430FEF722FB2378013B23702846ED
:1047700038BD204638BD002038BD00BF037C23BBB8
:104780004368427A5B7A9A421FD830B472B60468A2
:10479000E3682BB3DA6832B119688C4216D013463D
:1047A000DA68002AF8D1D8600023C360A37A013305
:1047B000A37202684168012313728A7A1A448A72CA
:1047C00042681372037462B630BC70475D6841681A
:1047D0008D42E4D1198903899942F4D01346DFE769
:1047E000E060E1E7037C10B5002B32D04368427AE9
:1047F0005B7A9A422DD872B60268D36843B3984266
:1048000002D129E0984202D0DB68002BFAD143683C
:10481000417A1B69044653F8210048B1FFF73CFF79
:1048200072B66368627A1B69002143F8221022681D
:10483000937A013B937223689A7A02B91A7262687A
:10484000937A013B937263689A7A1AB100232374B6
:1048500062B610BD1A72F9E7C368D360D7E700BF2C
:10486000084B1A7862B930B407480849D02505705A
:104870004FF0804401220C6010461A7030BC704723
:104880000020704724B2FF1F5EE400E008E100E072
:104890001A491B4A1B48F8B50B681B4D046843F0C6
:1048A00080730B60136843F0010313602E6814B922
:1048B00015E064699CB1237A002BFAD023682F6835
:1048C0001B68204698472B68E188DB1B1B099AB2BE
:1048D0008B42A28088BFE2806469002CEBD10A4B36
:1048E0000A4A1B6810880A4C9B1B1B0999B2834219
:1048F000218001D91180F8BDF8BD00BFFCED00E0BA
:10490000001000E018B2FF1F041000E040B2FF1FCB
:1049100046B2FF1F054A064B10781B78C0B2DBB2C7
:10492000984238BF4030C01A704700BFB8B2FF1F6E
:104930004DB2FF1FF0B4384B1A7912F0300F2CD063
:1049400072B6997D01F0FF0200293DD062B6334F67
:10495000334938780D78334E1C46C0B2EDB2431C53
:10496000402BE17928BF0023AB4202F1FF32C9B2EC
:104970001CBFF154184612F0FF02F0D12A4B1B68FD
:10498000C2B23A704BB1A84236BFC5F14005401BD8
:1049900040192728C4BF01221A701F49CA78D2B211
:1049A000150616D452060DD51B4B1B795B0609D58F
:1049B0001E4B1F491B6800220A7003B11A70164B68
:1049C0003C22DA70F0BC70474022D9795A7462B642
:1049D000E3E70B791C06E5D5164B174E1C783378A8
:1049E000E4B2DBB29C420ED0144D01E0A3420AD0E7
:1049F0000133282B28BF00230879E85CC0B2C871B6
:104A0000087D0728F2D9DBB2034933700B79180609
:104A100044BF7C23CB70C5E700B00640B8B2FF1F8F
:104A20004DB2FF1F78B2FF1F48B2FF1FBCB2FF1F7D
:104A30004CB2FF1FC0B2FF1FB9B2FF1F50B2FF1F21
:104A4000054A064B10781B78C0B2DBB2984238BFDB
:104A50004030C01A704700BFC8B2FF1FC9B2FF1F65
:104A6000F0B4384B1A7912F0300F2CD072B6997D11
:104A700001F0FF0200293DD062B6334F3349387848
:104A80000D78334E1C46C0B2EDB2431C402BE17989
:104A900028BF0023AB4202F1FF32C9B21CBFF15460
:104AA000184612F0FF02F0D12A4B1B68C2B23A70CE
:104AB0004BB1A84236BFC5F14005401B401927281D
:104AC000C4BF01221A701F49CA78D2B2150616D483
:104AD00052060DD51B4B1B795B0609D51E4B1F4992
:104AE0001B6800220A7003B11A70164B3C22DA7060
:104AF000F0BC70474022D9795A7462B6E3E70B796B
:104B00001C06E5D5164B174E1C783378E4B2DBB2A1
:104B10009C420ED0144D01E0A3420AD00133402B39
:104B200028BF00230879E85CC0B2C871087D072857
:104B3000F2D9DBB2034933700B79180644BF7C23EA
:104B4000CB70C5E700A00640C8B2FF1FC9B2FF1F67
:104B50000CB3FF1FC4B2FF1F50B3FF1F4CB3FF1FA6
:104B600054B3FF1F4DB3FF1FCCB2FF1F70B584B00D
:104B700072B6194B194D1A48702241260F24802114
:104B80001A702E701A460470197013781B06FCD523
:104B9000144B186862B6144B144C984298BF00EB43
:104BA000800001A998BF40000A2200F021F801A965
:104BB0002046002311F8012B01333AB10A2B20F8CB
:104BC000022FF7D11623237004B070BD5B00DBB257
:104BD000237004B070BD00BF000002400700024017
:104BE00006000240080002407F9698008C8CFF1F50
:104BF000F0B44D1E2E46002400E00134B0FBF2F369
:104C000002FB1300092800F130078ABF3730F8B2E1
:104C1000C0B206F8010F1846002BEED10A195370E6
:104C20004CB1107815F8016F28700133E01A8342F7
:104C300002F80169F5DB0846F0BC7047054A064BEF
:104C400010781B78C0B2DBB2984238BF4030C01A2F
:104C5000704700BF5CB3FF1F5DB3FF1F30B42B4B29
:104C60001A7994061FD52A48DA790378294901333D
:104C70003F2B0978C8BF00238B42D2B203D0264C09
:104C8000D9B2E2540170254A116861B1244A127800
:104C9000D2B2934236BFC2F140029B1A9B18272B17
:104CA000C4BF01230B70194AD378DBB2180611D4A4
:104CB0005A060DD5154B1B795B0609D5194B1A49B8
:104CC0001B6800220A7003B11A70104B2C22DA7094
:104CD00030BC704711790906EAD5144910480C78A0
:104CE0000178C9B28C420DD04A1C272A84BF00210A
:104CF0000A460F4D054C98BFD1B2AA5CD2B2E27100
:104D00000170D5E76C21D170D2E700BF00C006402A
:104D10005CB3FF1F5DB3FF1F88B3FF1F58B3FF1FB6
:104D2000C9B3FF1FCCB3FF1FC8B3FF1FD0B3FF1F12
:104D300060B3FF1F704700BF704700BF80F00040A6
:104D400002E000BF81F0004142001FBF5FEA410363
:104D500092EA030F7FEA226C7FEA236C6AD04FEA63
:104D60001262D2EB1363C1BFD218414048404140A8
:104D7000B8BF5B42192B88BF704710F0004F40F45A
:104D8000000020F07F4018BF404211F0004F41F476
:104D9000000121F07F4118BF494292EA030F3FD042
:104DA000A2F1010241FA03FC10EB0C00C3F1200355
:104DB00001FA03F100F0004302D5494260EB4000E4
:104DC000B0F5000F13D3B0F1807F06D340084FEA4F
:104DD000310102F10102FE2A51D2B1F1004F40EB44
:104DE000C25008BF20F0010040EA030070474900AC
:104DF00040EB000010F4000FA2F10102EDD1B0FA77
:104E000080FCACF1080CB2EB0C0200FA0CF0AABF6B
:104E100000EBC25052421843BCBFD0401843704709
:104E200092F0000F81F4000106BF80F4000001320F
:104E3000013BB5E74FEA41037FEA226C18BF7FEAE6
:104E4000236C21D092EA030F04D092F0000F08BF28
:104E50000846704790EA010F1CBF0020704712F00F
:104E60007F4F04D1400028BF40F00040704712F14E
:104E700000723CBF00F50000704700F0004343F0B3
:104E8000FE4040F4000070477FEA226216BF0846E9
:104E90007FEA23630146420206BF5FEA412390EAAC
:104EA000010F40F4800070474FF0000304E000BFA2
:104EB00010F0004348BF40425FEA000C08BF704753
:104EC00043F0964301464FF000001CE050EA010217
:104ED00008BF70474FF000030AE000BF50EA01022C
:104EE00008BF704711F0004302D5404261EB410119
:104EF0005FEA010C02BF84460146002043F0B6433E
:104F000008BFA3F18053A3F50003BCFA8CF2083A62
:104F1000A3EBC25310DB01FA02FC634400FA02FC6B
:104F2000C2F12002BCF1004F20FA02F243EB020072
:104F300008BF20F00100704702F1200201FA02FCD4
:104F4000C2F1200250EA4C0021FA02F243EB0200C7
:104F500008BF20EADC7070474FF0FF0C1CEAD0520B
:104F60001EBF1CEAD15392EA0C0F93EA0C0F6FD0CC
:104F70001A4480EA010C400218BF5FEA41211ED0AA
:104F80004FF0006343EA501043EA5111A0FB013196
:104F90000CF00040B1F5000F3EBF490041EAD3716B
:104FA0005B0040EA010062F17F02FD2A1DD8B3F1E7
:104FB000004F40EBC25008BF20F00100704790F056
:104FC000000F0CF0004C08BF49024CEA502040EAA8
:104FD00051207F3AC2BFD2F1FF0340EAC25070476E
:104FE00040F400004FF00003013A5DDC12F1190FAC
:104FF000DCBF00F000407047C2F10002410021FA1E
:1050000002F1C2F1200200FA02FC5FEA310040F135
:10501000000053EA4C0308BF20EADC70704792F0AE
:10502000000F00F0004C02BF400010F4000F013AE6
:10503000F9D040EA0C0093F0000F01F0004C02BFE1
:10504000490011F4000F013BF9D041EA0C018FE750
:105050000CEAD15392EA0C0F18BF93EA0C0F0AD056
:1050600030F0004C18BF31F0004CD8D180EA01007C
:1050700000F00040704790F0000F17BF90F0004F15
:10508000084691F0000F91F0004F14D092EA0C0FF7
:1050900001D142020FD193EA0C0F03D14B0218BF8A
:1050A000084608D180EA010000F0004040F0FE40D0
:1050B00040F40000704740F0FE4040F4400070476C
:1050C0004FF0FF0C1CEAD0521EBF1CEAD15392EAEB
:1050D0000C0F93EA0C0F69D0A2EB030280EA010CDB
:1050E00049024FEA402037D04FF0805343EA111174
:1050F00043EA10130CF000408B4238BF5B0042F1D2
:105100007D024FF4000C8B4224BF5B1A40EA0C0076
:10511000B3EB510F24BFA3EB510340EA5C00B3EBA8
:10512000910F24BFA3EB910340EA9C00B3EBD10F96
:1051300024BFA3EBD10340EADC001B0118BF5FEAE8
:105140001C1CE0D1FD2A3FF650AF8B4240EBC25011
:1051500008BF20F0010070470CF0004C4CEA5020D2
:105160007F32C2BFD2F1FF0340EAC250704740F421
:1051700000004FF00003013A37E792F0000F00F013
:10518000004C02BF400010F4000F013AF9D040EA91
:105190000C0093F0000F01F0004C02BF490011F425
:1051A000000F013BF9D041EA0C0195E70CEAD1531D
:1051B00092EA0C0F08D142027FF47DAF93EA0C0F04
:1051C0007FF470AF084676E793EA0C0F04D14B02E8
:1051D0003FF44CAF08466EE730F0004C18BF31F09A
:1051E000004CCAD130F000427FF45CAF31F0004394
:1051F0007FF43CAF5FE700BF42000ED2B2F1FE4F3A
:105200000BD34FF09E03B3EB126209D44FEA002395
:1052100043F0004323FA02F070474FF0000070475C
:1052200012F1610F01D1420202D14FF0FF307047FD
:105230004FF00000704700BF0B460146184600F0D3
:1052400001B800BF13460A460146022000F05ABBCF
:10525000014B1868704700BFD090FF1F70B50F4E0C
:105260000F4D761BB61018BF002405D0013455F839
:10527000043B9847A642F9D10A4E0B4D761B00F02D
:1052800049FFB61018BF002406D0013455F8043B7E
:105290009847A642F9D170BD70BD00BF20610000E3
:1052A000206100007061000020610000024B014697
:1052B000186800F00BB800BFD090FF1F024B0146EA
:1052C000186800F0DDBB00BFD090FF1F2DE9F04F44
:1052D00001F10B05162D83B0064640F29F8035F094
:1052E000070500F1BF80A94200F2BC8000F0F4FA8B
:1052F000B5F5FC7FC0F09C826B0A00F0BA80042BED
:1053000000F28381A80900F1390E4FEA4E033830CC
:10531000C44F07EB8303A3F108015C68A14207D1E6
:10532000ACE0002A80F2AC80E468A14200F0A680E4
:10533000636823F003035A1B0F2AF2DDB9493C6965
:1053400001F1080E744500F0B381636823F0030394
:105350005A1B0F2A00F39981002AC1F814E0C1F802
:1053600010E080F29E80B3F5007F80F06781DB085B
:1053700003F1010C01229B1002FA03F34A6851F871
:105380003C80C4F8088001EBCC091A43A9F108035A
:10539000E3604A6041F83C40C8F80C4083100124A7
:1053A0009C40944200F28A80144206D120F003000F
:1053B0006400144200F10400FAD007EBC009CC46A7
:1053C0008046DCF80C108C4507D173E1002A80F28E
:1053D0008181C9688C4500F06D814B6823F003031F
:1053E0005A1B0F2AF2DD0C46D1F80CC054F8088F76
:1053F0004B1945F001054D6042F00101C8F80CC0A1
:105400003046CCF808807B613B61C3F80CE0C3F800
:1054100008E059609A5000F061FA1FE0102921D885
:1054200000F05AFA1025062302207E4F07EB830373
:10543000A3F108025C68944200F045816368E1686A
:10544000A56823F00303234430465A68E96042F01C
:1054500001028D605A6000F041FA0834204603B022
:10546000BDE8F08F00240C232046336003B0BDE874
:10547000F08F80234FF0400E3F2049E770465DE7F4
:105480002344E1685A68A56842F00102E9603046A9
:105490008D605A6000F022FA0834204603B0BDE85F
:1054A000F08F234430465A6842F001025A6000F0FF
:1054B00015FA0834204603B0BDE8F08FBC68636875
:1054C00023F00308A84504D3C5EB08030F2B00F312
:1054D0008C80554BDFF860911A68D9F800300133A1
:1054E0002A4404EB080A00F0608102F580520F3272
:1054F00022F47F6222F00F0211463046019200F042
:10550000EFF9B0F1FF3F8346019A00F058818245E0
:1055100000F2FC80454B1968DA451144196000F02F
:105520005381D9F80000DFF810E101301BBFCAEB4E
:105530000B0A5144CEF800B019601BF0070100F0CF
:105540001781C1F10800C1F58051834408315A44E4
:10555000C2F30B02C2EB010949463046019300F049
:10556000BFF9431C019B00F03F81CBEB00024A4492
:1055700042F001021968C7F808B04944BC42CBF8B0
:1055800004201960DFF8A49016D0B8F10F0F40F294
:10559000FD806268A8F10C0323F00703E01802F015
:1055A00001024FF0050E1A430F2B6260C0F804E0B1
:1055B000C0F808E000F21C811D4BBC681A689142DB
:1055C00088BF19601B4B1A689142626888BF1960D6
:1055D00022F003029542A2EB050301D80F2B04DC55
:1055E000304600F07BF9002438E7621943F00103EC
:1055F00045F0010565603046BA60536000F06EF911
:105600000834204603B0BDE8F08F142B71D9542B19
:1056100000F2A480280B00F16F0E4FEA4E036E30AB
:1056200076E600BFD490FF1FDCB3FF1FE0B3FF1F7F
:10563000D8B3FF1FD4B3FF1FE094FF1F5A0A042AF8
:105640005ED9142A00F2B38002F15C0149005B329A
:1056500007EB810C57F82110DFF8DC81ACF1080C66
:105660008C4500F088804A6822F00302934202D2FF
:1056700089688C45F7D1D1F80CC07A68C4F80CC0A1
:10568000A160CCF80840CC6088E6631942F00107BD
:1056900045F00105656030464B610B61C3F80CE0D5
:1056A000C3F808E05F609A50083400F017F9D5E6B7
:1056B0004A6873E608F1010818F0030F0CF1080CB2
:1056C0007FF47FAE30E0DC68A34208BF02303FF4D5
:1056D00035AEB3E60B440C465A68C96854F8085F07
:1056E00042F001025A603046E9608D6000F0F6F841
:1056F000B4E603F15C0E03F15B004FEA4E0307E6EC
:105700009A0902F1390149003832A1E7BC424A4BFB
:105710003FF400AF9C68626822F003025AE759F830
:105720000839994540F0828010F0030F00F1FF30F6
:10573000F5D17B6823EA04037B6064009C423FF65A
:10574000BDAE002C3FF4BAAE1C4240467FF435AEED
:1057500064001C4200F10400FAD02EE6B3F5AA7FE3
:1057600018D8E80B00F1780E4FEA4E037730CFE5FA
:105770004FF48051EBE60121D8F80430921001FA81
:1057800002F21A43C8F80420614677E70123CBF8F8
:10579000043025E740F25452934220D8A80C00F17F
:1057A0007D0E4FEA4E037C30B2E51032A4E6542A57
:1057B00026D81A0B02F16F0149006E3248E7BC6827
:1057C000626822F0030205E7CAF30B0000287FF4A9
:1057D000A8AE4244BB6842F001025A60ECE6FE23E8
:1057E0004FF07F0E7E2093E501224FF00009C1E6C5
:1057F00004F10801304600F043F9D9F80010DBE667
:10580000B2F5AA7F05D8DA0B02F1780149007732A8
:105810001EE740F254518A4205D89A0C02F17D01EC
:1058200049007C3214E7FE217E2211E77B6884E781
:10583000E808431C5B00F8E5D490FF1F70B48407B0
:1058400046D0541E002A41D0CDB2034602E0621E6B
:10585000E4B3144603F8015B9A07F8D1032C2ED960
:10586000CDB245EA05250F2C45EA054519D903F1C6
:1058700010022646103E0F2E42F8105C42F80C5CD7
:1058800042F8085C42F8045C02F11002F2D8A4F17C
:10589000100222F00F0204F00F041032032C134404
:1058A0000DD91E462246043A032A46F8045BFAD86C
:1058B000221F22F003020432134404F003042CB12B
:1058C000C9B21C4403F8011BA342FBD170BC704752
:1058D00014460346C2E700BF704700BF704700BFD1
:1058E00038B5074C0023054608462360FDF7CAFB80
:1058F000431C00D038BD2368002BFBD02B6038BD83
:105900001CB4FF1F2DE9F047254C2568D5F8484108
:105910000646884692469946C4B360681F2817DC3D
:10592000431C76B104EB80050122C5F888A0D4F8A9
:10593000881182401143022EC4F88811C5F80891DD
:105940001ED00230636044F820800020BDE8F0875C
:10595000144B03B34FF4C870FFF7A8FC0446D0B152
:10596000D5F84831002780E88800C5F84841384616
:105970000123C4F88871C4F88C71002EE1D0D1E7FE
:10598000D4F88C110A43C4F88C21DAE705F5A67423
:10599000C5F84841C1E74FF0FF30BDE8F08700BFD0
:1059A00010610000AD520000024B13B10248FBF73A
:1059B0004DB8704700000000BD59000038B5074DD4
:1059C000074C2C1BA41005D0013C55F8043D98470A
:1059D000002CF9D1BDE8384000F0CABB000000003F
:1059E00000000000F8B5234F0C460646FFF774FF91
:1059F000BB685D6825F00305291B01F6EF7121F4F2
:105A00007F6121F00F01A1F58054B4F5805F07DBC1
:105A100000213046FFF764FFBB682B44984204D056
:105A20003046FFF75BFF0020F8BD61423046FFF7CC
:105A300057FF01300DD0104BBA6819682D1B45F087
:105A400001053046091B55601960FFF747FF01202B
:105A5000F8BD00213046FFF743FFBA68831A0F2BC9
:105A6000DEDD064C0449246843F00103001B53604B
:105A70000860D5E7D490FF1FE0B3FF1FE094FF1F3D
:105A8000002945D02DE9F0410D468046FFF724FF5F
:105A900055F8047C6A4927F00103A5F10804E218CF
:105AA0008E685068B24220F0030062D0FE0750605A
:105AB0000BD455F8087CE41B01F1080EA568754568
:105AC0003B446FD0E768EF60BD6015186D68ED0767
:105AD00042D543F001026260E350B3F5007F18D273
