:1000000000800020BD0100001D910000D59000007F
:10001000D5900000D5900000D5900000D59000004C
:10002000D5900000D5900000D59000001D910000F3
:100030001D910000D590000079A500007DA600006C
:100040001D9100001D9100001D9100001D910000F8
:100050001D9100001D9100001D9100001D910000E8
:100060001D9100001D9100001D9100001D910000D8
:100070001D9100001D9100001D9100001D910000C8
:100080001D9100001D9100001D9100001D910000B8
:100090001D9100001D9100001D9100001D910000A8
:1000A000DD8A0000E98A00001D9100001D9100001A
:1000B0001D9100001D9100001D9100001D91000088
:1000C0001D9100001D9100001D9100001D91000078
:1000D0001D9100001D9100001D9100001D91000068
:1000E0001D9100001D9100001D9100001D91000058
:1000F0001D91000099AD00001D9100006DAC000045
:100100001D91000095AF00001D9100001D910000A1
:100110001D9100001D9100001D9100001D91000027
:100120001D9100001D9100001D9100001D91000017
:100130001D9100001D9100001D9100001D91000007
:100140001D910000496700001D9100001D910000F5
:100150001D9100001D9100001D9100001D910000E7
:100160001D910000119800001D9100001D910000DC
:100170001D9100001D9100001D9100001D910000C7
:100180001D9100001D9100001D9100001D910000B7
:100190001D9100001D9100001D9100001D910000A7
:1001A0001D9100001D9100001D9100001D91000097
:1001B0001D9100001D910000C9AB0000564B4CF290
:1001C000205210B51A804DF628121A8000BF00BFC9
:1001D00008F0A8FF514B4FF010621A60504A9A6025
:1001E000504ADA60504A136813F4807304D14F49BF
:1001F0000B604FF4A85313604D4B1A78110703D5C9
:100200001A7842F008021A704A4B4B492A221A7097
:100210004A4A4B4B8B4204D252F8040F43F8040B6A
:10022000F8E7484B484900228B4202D243F8042B9E
:10023000FAE74649464A002352F8230041F82300D2
:1002400001336F2BF8D1434B434A802103F8011B44
:100250009342FBD1414B3D4A1A60414B8A221A70AE
:10026000A3F5805324225A70A0221A709A7992071B
:10027000FCD59A79D406FCD43A4A937903F00C035E
:10028000082B384BF9D103221A7140225A719A79FE
:100290009006FCD5334A9179324B4906FBD5324A58
:1002A000324911600221516020221A709A7902F0BD
:1002B0000C020C2AFAD12E4B2E4A1A602E4B2F4AD2
:1002C0001A6000225A60072243F8042C2C4AC3F813
:1002D0000C2D62B609F00CF9144B1B68DA0705D532
:1002E000284809F069F8284B284A1A60284B1B78DF
:1002F0005B0609D5244C254B22689A4204D121483B
:1003000009F05AF8002323600BF0E0F908F010FF21
:100310000AF090FAFEE700BF0E200540308004404E
:10032000823F04000100002B10D0034014D0034092
:1003300002D0074000E007404C9FFF1F64CD000043
:100340002093FF1F4C9FFF1FE8BFFF1F008EFF1F62
:100350000000000000E400E05FE400E008ED00E0E1
:100360000050064000400640448004400000030165
:1003700004800440C010050014E000E0FF76010096
:1003800000002020310000001CE00340A5C3945A67
:1003900000F00740FFFFFFFFFFFFFFFFFFFFFFFF32
:1003A000FFFFFFFFFFFFFFFFFFFFFFFFFFFFFFFF5D
:1003B000FFFFFFFFFFFFFFFFFFFFFFFFFFFFFFFF4D
:1003C000FFFFFFFFFFFFFFFFFFFFFFFFFFFFFFFF3D
:1003D000FFFFFFFFFFFFFFFFFFFFFFFFFFFFFFFF2D
:1003E000FFFFFFFFFFFFFFFFFFFFFFFFFFFFFFFF1D
:1003F000FFFFFFFFFFFFFFFFFFFFFFFFFFFFFFFF0D
:10040000FFFFFFFFFFFFFFFFFFFFFFFFDEF9FFFF23
:1004100010B5054C237833B9044B13B10448AFF33E
:1004200000800123237010BD4C9FFF1F00000000BF
:1004300068CD0000084B10B51BB108490848AFF360
:1004400000800848036803B910BD074B002BFBD0A0
:10045000BDE81040184700BF00000000509FFF1F7C
:1004600068CD00004C9FFF1F0000000040697047EE
:10047000002070474FF4C870704700BF4FF4C87039
:10048000704700BF4FF4C870704700BF4FF4C8708A
:10049000704700BF10B501210446052008F0B2FFE7
:1004A0008022024BA261E36110BD00BFC0F00F408B
:1004B00010B501210446042008F0A4FF4FF40052B7
:1004C000014BA261E36110BD00F00F4010B50121A6
:1004D0000446032008F096FF4FF48052014BA261BE
:1004E000E36110BD00F00F4010B501210446022069
:1004F00008F088FF0122024BA261E36110BD00BF3A
:10050000C0F00F402DE9F041846874B1A3686568BC
:10051000033323F00303CA18AA42A36005D804F1E9
:100520000C00A2601844BDE8F081C768B942884653
:1005300038BFB846054608F10C000E460BF0EEF841
:1005400040B17F0080E81001A8608660EF600C3049
:10055000BDE8F081BDE8F08110B504460AF0DEFA8E
:10056000204610BD10B5044B044640F8183B06F079
:100570004FFB204610BD00BF34CA000038B5054609
:100580008068054B2B6028B104680BF0CFF820463B
:10059000002CF9D1284638BD64C60000F0B58BB0F8
:1005A000002305688DF804308DF805308DF806308D
:1005B0002E68374A8DF8083096428DF809308DF84C
:1005C0000A305FD1827C04910446012A01A805917A
:1005D0008DF81E308DF81F308DF82030039015D027
:1005E0008DF81D308DF81C308DF81B308DF81A30C9
:1005F0008DF819308DF818300023AA698DF8213054
:100600002046099303A990470BB0F0BD214A137807
:10061000013303F0070313F0010F14BF8021002101
:1006200013709A0744BF41F04001C9B25B0748BF4D
:1006300041F0200110310022C9B20DF11B030DF170
:100640001E074FF4807EAAB19EFBF2F2D2B2501C7C
:10065000C0B200FB01152D121870EEB205B1013EBB
:1006600003F8036C00B11A7001339F4208D0DA78A6
:10067000002AE9D11A7003F8032C01339F42F6D106
:100680002568B9E70A4602AB01A9B0470BB0F0BD37
:1006900099060000689FFF1FF0B5857C1C785E7886
:1006A0009B7889B0012D0191029203928DF816403A
:1006B0008DF817608DF8183016D000238DF815309E
:1006C0008DF814308DF813308DF812308DF811300C
:1006D0008DF810300268002392698DF81930079365
:1006E00001A9904709B0F0BD1B4A1378013303F00C
:1006F000070313F0010F137014BF80220022990723
:1007000044BF42F04002D2B25B0748BF42F0200231
:100710001032D2B20DF113030DF116074FF4807EA3
:10072000ACB19EFBF4F4E4B2611CC9B201FB02253A
:100730002D121970EEB205B1013E03F8036C01B140
:100740001C700133BB42C5D0DC78002CE9D11C7091
:1007500003F8034CF5E700BF689FFF1FF0B5857CE9
:100760001C785E789B7889B0012D019102920392EA
:100770008DF816408DF817608DF8183017D00023CB
:100780008DF815308DF814308DF813308DF8123047
:100790008DF811308DF810300368002203219B6919
:1007A0008DF81910079201A9984709B0F0BD1B4AAE
:1007B0001378013303F0070313F0010F137014BF14
:1007C00080220022990744BF42F04002D2B25B0768
:1007D00048BF42F020021032D2B20DF113030DF1E6
:1007E00016074FF4807EACB19EFBF4F4E4B2611CBA
:1007F000C9B201FB02252D121970EEB205B1013EFE
:1008000003F8036C01B11C700133BB42C4D0DC7827
:10081000002CE9D11C7003F8034CF5E7689FFF1F1B
:100820002DE9F04F8BB004460990089108F0F0FDD7
:10083000238CC01A83B2312BF8D9089C9E4AE07BE6
:1008400013680290207C657C01902046667BD4F87A
:10085000008094F80C9094F80EA00395A77CE57C9A
:1008600094F814E0954994F91540049443F080738A
:10087000D0F804B013600A689148924B42F001022C
:100880000A60002202601A681A68019822F48052F5
:100890001A6098F80140861B5FFA86FC002C40F035
:1008A00057826B1C059372B6854B1968BBF1000F1C
:1008B00001F1780140F3BB807A1C069281480EF169
:1008C000010207921F46029AC9EB0209019ACCEB7A
:1008D000020C039ACAEB020A5FFA89F95FFA8CFCF0
:1008E0005FFA8AFA72B61A688A4205D91A68521AE9
:1008F000B2F5935F00F2E8800568066845F480551C
:1009000026F480564FF0070E1A688A42FCD33968E5
:100910000560220601F1780100F195801A688A1AB3
:10092000682AFBD86400BEF1010E0660E4B2EBD188
:100930001A689142FCD839680560240601F17801F3
:1009400000F18B801A688A1A682AFBD8066098F82A
:1009500000403CB184FA59F4069AE4B204FB02F474
:10096000C4F307244FF0070E1A689142FCD8396887
:100970000560220601F1780179D41A688A1A682A7A
:10098000FBD86400BEF1010E0660E4B2ECD11A6837
:100990009142FCD839680560240601F178016FD4D2
:1009A0001A688A1A682AFBD8066098F802403CB197
:1009B00084FA5AF4079AE4B204FB02F4C4F307245D
:1009C0004FF0070E1A688A42FCD339680560220688
:1009D00001F178015DD41A688A1A682AFBD864008C
:1009E000BEF1010E0660E4B2ECD11A689142FCD867
:1009F00039680560240601F1780153D41A688A1A0F
:100A0000682AFBD8049A066090440BF1FF3B98F8E3
:100A100001403CB184FA5CF4059AE4B202FB04F4B0
:100A2000C4F3072462B6BBF1000F7FF44CAF62B68B
:100A3000234B1B68002B48D008F0EAFC099B188464
:100A40000BB0BDE8F08F1A688A1A2C2A7FF66AAFBD
:100A50001A688A1A2C2AF6D864E71A688A1A2C2A85
:100A60007FF674AF1A688A1A2C2AF6D86EE71A68CD
:100A70008A1A2C2A85D91A688A1A2C2AF7D880E76C
:100A80001A688A1A2C2A8FD91A688A1A2C2AF7D837
:100A90008AE71A688A1A2C2AA1D91A688A1A2C2A73
:100AA000F7D89CE71A688A1A2C2AABD91A688A1ACE
:100AB0002C2AF7D8A6E700BFFCED00E0001000E00C
:100AC000041000E000F00F4062B662B64FF4C86355
:100AD000013BFDD172B6089FA54AF97B13687E7C65
:100AE00002913C46397C94F915E0089CA1487D7B35
:100AF000019143F08073D7F8008097F80CA097F825
:100B00000E900396F97CBE7CCDF810E03F7DD4F8C2
:100B100004B013600268984C984B42F001020260E6
:100B2000002222601A681A6822F480521A60019B1F
:100B300098F801405D1B5FFA85FC002C00F01281E3
:100B400084FA5CF4E3B24A1C02FB03F30592C3F39C
:100B5000072472B6884B1968BBF1000F01F17801C8
:100B600040F3BA80721C069284487A1C07921F4692
:100B7000029ACAEB020A019ACCEB020C039AC9EB67
:100B800002095FFA8AFA5FFA8CFC5FFA89F972B699
:100B90001A688A4205D91A68521AB2F5935F00F2B0
:100BA000E4800668056846F4805625F480554FF0C9
:100BB000070E1A688A42FCD339680660220601F1E2
:100BC000780100F18D801A688A1A682AFBD86400BF
:100BD000BEF1010E0560E4B2EBD11A689142FCD877
:100BE00039680660240601F1780100F183801A68F3
:100BF0008A1A682AFBD8056098F800403CB184FA4C
:100C00005AF4069AE4B204FB02F4C4F307244FF04A
:100C1000070E1A688A42FCD339680660220601F181
:100C2000780171D41A688A1A682AFBD86400BEF168
:100C3000010E0560E4B2ECD11A689142FCD8396823
:100C40000660240601F1780167D41A688A1A682AB6
:100C5000FBD8056098F802403CB184FA59F4079A31
:100C6000E4B204FB02F4C4F307244FF0070E1A6841
:100C70008A42FCD339680660220601F1780155D416
:100C80001A688A1A682AFBD86400BEF1010E056052
:100C9000E4B2ECD11A689142FCD8396806602206A9
:100CA00001F178014BD41A688A1A682AFBD8049A91
:100CB000056090440BF1FF3B98F801403CB184FA89
:100CC0005CF4059AE4B202FB04F4C4F3072462B6B0
:100CD000BBF1000F7FF44CAF62B6274B1B68ABE64D
:100CE0001A688A1A2C2A7FF672AF1A688A1A2C2A76
:100CF000F6D86CE71A688A1A2C2A7FF67CAF1A6835
:100D00008A1A2C2AF6D876E71A688A1A2C2A8DD9DC
:100D10001A688A1A2C2AF7D888E71A688A1A2C2A9D
:100D200097D91A688A1A2C2AF7D892E71A688A1A69
:100D30002C2AA9D91A688A1A2C2AF7D8A4E71A6883
:100D40008A1A2C2AB3D91A688A1A2C2AF7D8AEE73D
:100D500084FA5CF4E3B26A1C02FB03F30592C3F36A
:100D60000724A0E54B1C0593F3E662B664E600BFDA
:100D7000FCED00E0001000E0041000E000F00F4087
:100D80002DE9F04F8BB004460990089108F040FB24
:100D9000238CC01A83B2312BF8D9089C9E4AE07B81
:100DA00013680290207C657C01902046667BD4F815
:100DB000008094F80C9094F80EA00395A77CE57C35
:100DC00094F814E0954994F91540049443F0807325
:100DD000D0F804B013600A689148924B42F00102C7
:100DE0000A60002202601A681A68019822F08002E4
:100DF0001A6098F80140861B5FFA86FC002C40F0D0
:100E000057826B1C059372B6854B1968BBF1000FB6
:100E100001F1780140F3BB807A1C069281480EF103
:100E2000010207921F46029AC9EB0209019ACCEB14
:100E3000020C039ACAEB020A5FFA89F95FFA8CFC8A
:100E40005FFA8AFA72B61A688A4205D91A68521A83
:100E5000B2F5935F00F2E8800568066845F080050A
:100E600026F080064FF0070E1A688A42FCD33968D4
:100E70000560220601F1780100F195801A688A1A4E
:100E8000682AFBD86400BEF1010E0660E4B2EBD123
:100E90001A689142FCD839680560240601F178018E
:100EA00000F18B801A688A1A682AFBD8066098F8C5
:100EB00000403CB184FA59F4069AE4B204FB02F40F
:100EC000C4F307244FF0070E1A689142FCD8396822
:100ED0000560220601F1780179D41A688A1A682A15
:100EE000FBD86400BEF1010E0660E4B2ECD11A68D2
:100EF0009142FCD839680560240601F178016FD46D
:100F00001A688A1A682AFBD8066098F802403CB131
:100F100084FA5AF4079AE4B204FB02F4C4F30724F7
:100F20004FF0070E1A688A42FCD339680560220622
:100F300001F178015DD41A688A1A682AFBD8640026
:100F4000BEF1010E0660E4B2ECD11A689142FCD801
:100F500039680560240601F1780153D41A688A1AA9
:100F6000682AFBD8049A066090440BF1FF3B98F87E
:100F700001403CB184FA5CF4059AE4B202FB04F44B
:100F8000C4F3072462B6BBF1000F7FF44CAF62B626
:100F9000234B1B68002B48D008F03AFA099B1884B1
:100FA0000BB0BDE8F08F1A688A1A2C2A7FF66AAF58
:100FB0001A688A1A2C2AF6D864E71A688A1A2C2A20
:100FC0007FF674AF1A688A1A2C2AF6D86EE71A6868
:100FD0008A1A2C2A85D91A688A1A2C2AF7D880E707
:100FE0001A688A1A2C2A8FD91A688A1A2C2AF7D8D2
:100FF0008AE71A688A1A2C2AA1D91A688A1A2C2A0E
:10100000F7D89CE71A688A1A2C2AABD91A688A1A68
:101010002C2AF7D8A6E700BFFCED00E0001000E0A6
:10102000041000E0C0F00F4062B662B64FF4C8632F
:10103000013BFDD172B6089FA54AF97B13687E7CFF
:1010400002913C46397C94F915E0089CA1487D7BCF
:10105000019143F08073D7F8008097F80CA097F8BF
:101060000E900396F97CBE7CCDF810E03F7DD4F85D
:1010700004B013600268984C984B42F00102026081
:10108000002222601A681A6822F080021A60019B0E
:1010900098F801405D1B5FFA85FC002C00F012817E
:1010A00084FA5CF4E3B24A1C02FB03F30592C3F337
:1010B000072472B6884B1968BBF1000F01F1780163
:1010C00040F3BA80721C069284487A1C07921F462D
:1010D000029ACAEB020A019ACCEB020C039AC9EB02
:1010E00002095FFA8AFA5FFA8CFC5FFA89F972B634
:1010F0001A688A4205D91A68521AB2F5935F00F24B
:10110000E4800668056846F0800625F080054FF00B
:10111000070E1A688A42FCD339680660220601F17C
:10112000780100F18D801A688A1A682AFBD8640059
:10113000BEF1010E0560E4B2EBD11A689142FCD811
:1011400039680660240601F1780100F183801A688D
:101150008A1A682AFBD8056098F800403CB184FAE6
:101160005AF4069AE4B204FB02F4C4F307244FF0E5
:10117000070E1A688A42FCD339680660220601F11C
:10118000780171D41A688A1A682AFBD86400BEF103
:10119000010E0560E4B2ECD11A689142FCD83968BE
:1011A0000660240601F1780167D41A688A1A682A51
:1011B000FBD8056098F802403CB184FA59F4079ACC
:1011C000E4B204FB02F4C4F307244FF0070E1A68DC
:1011D0008A42FCD339680660220601F1780155D4B1
:1011E0001A688A1A682AFBD86400BEF1010E0560ED
:1011F000E4B2ECD11A689142FCD839680660220644
:1012000001F178014BD41A688A1A682AFBD8049A2B
:10121000056090440BF1FF3B98F801403CB184FA23
:101220005CF4059AE4B202FB04F4C4F3072462B64A
:10123000BBF1000F7FF44CAF62B6274B1B68ABE6E7
:101240001A688A1A2C2A7FF672AF1A688A1A2C2A10
:10125000F6D86CE71A688A1A2C2A7FF67CAF1A68CF
:101260008A1A2C2AF6D876E71A688A1A2C2A8DD977
:101270001A688A1A2C2AF7D888E71A688A1A2C2A38
:1012800097D91A688A1A2C2AF7D892E71A688A1A04
:101290002C2AA9D91A688A1A2C2AF7D8A4E71A681E
:1012A0008A1A2C2AB3D91A688A1A2C2AF7D8AEE7D8
:1012B00084FA5CF4E3B26A1C02FB03F30592C3F305
:1012C0000724A0E54B1C0593F3E662B664E600BF75
:1012D000FCED00E0001000E0041000E0C0F00F4062
:1012E0002DE9F04F8BB004460990089108F090F872
:1012F000238CC01A83B2312BF8D9089C9E4AE07B1C
:1013000013680290207C657C01902046667BD4F8AF
:10131000008094F80C9094F80EA00395A77CE57CCF
:1013200094F814E0954994F91540049443F08073BF
:10133000D0F804B013600A689148924B42F0010261
:101340000A60002202601A681A68019822F40052AA
:101350001A6098F80140861B5FFA86FC002C40F06A
:1013600057826B1C059372B6854B1968BBF1000F51
:1013700001F1780140F3BB807A1C069281480EF19E
:10138000010207921F46029AC9EB0209019ACCEBAF
:10139000020C039ACAEB020A5FFA89F95FFA8CFC25
:1013A0005FFA8AFA72B61A688A4205D91A68521A1E
:1013B000B2F5935F00F2E8800568066845F40055D1
:1013C00026F400564FF0070E1A688A42FCD339689B
:1013D0000560220601F1780100F195801A688A1AE9
:1013E000682AFBD86400BEF1010E0660E4B2EBD1BE
:1013F0001A689142FCD839680560240601F1780129
:1014000000F18B801A688A1A682AFBD8066098F85F
:1014100000403CB184FA59F4069AE4B204FB02F4A9
:10142000C4F307244FF0070E1A689142FCD83968BC
:101430000560220601F1780179D41A688A1A682AAF
:10144000FBD86400BEF1010E0660E4B2ECD11A686C
:101450009142FCD839680560240601F178016FD407
:101460001A688A1A682AFBD8066098F802403CB1CC
:1014700084FA5AF4079AE4B204FB02F4C4F3072492
:101480004FF0070E1A688A42FCD3396805602206BD
:1014900001F178015DD41A688A1A682AFBD86400C1
:1014A000BEF1010E0660E4B2ECD11A689142FCD89C
:1014B00039680560240601F1780153D41A688A1A44
:1014C000682AFBD8049A066090440BF1FF3B98F819
:1014D00001403CB184FA5CF4059AE4B202FB04F4E6
:1014E000C4F3072462B6BBF1000F7FF44CAF62B6C1
:1014F000234B1B68002B48D007F08AFF099B1884F8
:101500000BB0BDE8F08F1A688A1A2C2A7FF66AAFF2
:101510001A688A1A2C2AF6D864E71A688A1A2C2ABA
:101520007FF674AF1A688A1A2C2AF6D86EE71A6802
:101530008A1A2C2A85D91A688A1A2C2AF7D880E7A1
:101540001A688A1A2C2A8FD91A688A1A2C2AF7D86C
:101550008AE71A688A1A2C2AA1D91A688A1A2C2AA8
:10156000F7D89CE71A688A1A2C2AABD91A688A1A03
:101570002C2AF7D8A6E700BFFCED00E0001000E041
:10158000041000E000F00F4062B662B64FF4C8638A
:10159000013BFDD172B6089FA54AF97B13687E7C9A
:1015A00002913C46397C94F915E0089CA1487D7B6A
:1015B000019143F08073D7F8008097F80CA097F85A
:1015C0000E900396F97CBE7CCDF810E03F7DD4F8F8
:1015D00004B013600268984C984B42F0010202601C
:1015E000002222601A681A6822F400521A60019BD5
:1015F00098F801405D1B5FFA85FC002C00F0128119
:1016000084FA5CF4E3B24A1C02FB03F30592C3F3D1
:10161000072472B6884B1968BBF1000F01F17801FD
:1016200040F3BA80721C069284487A1C07921F46C7
:10163000029ACAEB020A019ACCEB020C039AC9EB9C
:1016400002095FFA8AFA5FFA8CFC5FFA89F972B6CE
:101650001A688A4205D91A68521AB2F5935F00F2E5
:10166000E4800668056846F4005625F400554FF0FE
:10167000070E1A688A42FCD339680660220601F117
:10168000780100F18D801A688A1A682AFBD86400F4
:10169000BEF1010E0560E4B2EBD11A689142FCD8AC
:1016A00039680660240601F1780100F183801A6828
:1016B0008A1A682AFBD8056098F800403CB184FA81
:1016C0005AF4069AE4B204FB02F4C4F307244FF080
:1016D000070E1A688A42FCD339680660220601F1B7
:1016E000780171D41A688A1A682AFBD86400BEF19E
:1016F000010E0560E4B2ECD11A689142FCD8396859
:101700000660240601F1780167D41A688A1A682AEB
:10171000FBD8056098F802403CB184FA59F4079A66
:10172000E4B204FB02F4C4F307244FF0070E1A6876
:101730008A42FCD339680660220601F1780155D44B
:101740001A688A1A682AFBD86400BEF1010E056087
:10175000E4B2ECD11A689142FCD8396806602206DE
:1017600001F178014BD41A688A1A682AFBD8049AC6
:10177000056090440BF1FF3B98F801403CB184FABE
:101780005CF4059AE4B202FB04F4C4F3072462B6E5
:10179000BBF1000F7FF44CAF62B6274B1B68ABE682
:1017A0001A688A1A2C2A7FF672AF1A688A1A2C2AAB
:1017B000F6D86CE71A688A1A2C2A7FF67CAF1A686A
:1017C0008A1A2C2AF6D876E71A688A1A2C2A8DD912
:1017D0001A688A1A2C2AF7D888E71A688A1A2C2AD3
:1017E00097D91A688A1A2C2AF7D892E71A688A1A9F
:1017F0002C2AA9D91A688A1A2C2AF7D8A4E71A68B9
:101800008A1A2C2AB3D91A688A1A2C2AF7D8AEE772
:1018100084FA5CF4E3B26A1C02FB03F30592C3F39F
:101820000724A0E54B1C0593F3E662B664E600BF0F
:10183000FCED00E0001000E0041000E000F00F40BC
:101840002DE9F04F8BB004460990089107F0E0FDB8
:10185000238CC01A83B2312BF8D9089C9E4AE07BB6
:1018600013680290207C657C01902046667BD4F84A
:10187000008094F80C9094F80EA00395A77CE57C6A
:1018800094F814E0954994F91540049443F080735A
:10189000D0F804B013600A689148924B42F00102FC
:1018A0000A60002202601A681A68019822F0010298
:1018B0001A6098F80140861B5FFA86FC002C40F005
:1018C00057826B1C059372B6854B1968BBF1000FEC
:1018D00001F1780140F3BB807A1C069281480EF139
:1018E000010207921F46029AC9EB0209019ACCEB4A
:1018F000020C039ACAEB020A5FFA89F95FFA8CFCC0
:101900005FFA8AFA72B61A688A4205D91A68521AB8
:10191000B2F5935F00F2E8800568066845F00105BE
:1019200026F001064FF0070E1A688A42FCD3396888
:101930000560220601F1780100F195801A688A1A83
:10194000682AFBD86400BEF1010E0660E4B2EBD158
:101950001A689142FCD839680560240601F17801C3
:1019600000F18B801A688A1A682AFBD8066098F8FA
:1019700000403CB184FA59F4069AE4B204FB02F444
:10198000C4F307244FF0070E1A689142FCD8396857
:101990000560220601F1780179D41A688A1A682A4A
:1019A000FBD86400BEF1010E0660E4B2ECD11A6807
:1019B0009142FCD839680560240601F178016FD4A2
:1019C0001A688A1A682AFBD8066098F802403CB167
:1019D00084FA5AF4079AE4B204FB02F4C4F307242D
:1019E0004FF0070E1A688A42FCD339680560220658
:1019F00001F178015DD41A688A1A682AFBD864005C
:101A0000BEF1010E0660E4B2ECD11A689142FCD836
:101A100039680560240601F1780153D41A688A1ADE
:101A2000682AFBD8049A066090440BF1FF3B98F8B3
:101A300001403CB184FA5CF4059AE4B202FB04F480
:101A4000C4F3072462B6BBF1000F7FF44CAF62B65B
:101A5000234B1B68002B48D007F0DAFC099B188445
:101A60000BB0BDE8F08F1A688A1A2C2A7FF66AAF8D
:101A70001A688A1A2C2AF6D864E71A688A1A2C2A55
:101A80007FF674AF1A688A1A2C2AF6D86EE71A689D
:101A90008A1A2C2A85D91A688A1A2C2AF7D880E73C
:101AA0001A688A1A2C2A8FD91A688A1A2C2AF7D807
:101AB0008AE71A688A1A2C2AA1D91A688A1A2C2A43
:101AC000F7D89CE71A688A1A2C2AABD91A688A1A9E
:101AD0002C2AF7D8A6E700BFFCED00E0001000E0DC
:101AE000041000E0C0F00F4062B662B64FF4C86365
:101AF000013BFDD172B6089FA54AF97B13687E7C35
:101B000002913C46397C94F915E0089CA1487D7B04
:101B1000019143F08073D7F8008097F80CA097F8F4
:101B20000E900396F97CBE7CCDF810E03F7DD4F892
:101B300004B013600268984C984B42F001020260B6
:101B4000002222601A681A6822F001021A60019BC2
:101B500098F801405D1B5FFA85FC002C00F01281B3
:101B600084FA5CF4E3B24A1C02FB03F30592C3F36C
:101B7000072472B6884B1968BBF1000F01F1780198
:101B800040F3BA80721C069284487A1C07921F4662
:101B9000029ACAEB020A019ACCEB020C039AC9EB37
:101BA00002095FFA8AFA5FFA8CFC5FFA89F972B669
:101BB0001A688A4205D91A68521AB2F5935F00F280
:101BC000E4800668056846F0010625F001054FF03F
:101BD000070E1A688A42FCD339680660220601F1B2
:101BE000780100F18D801A688A1A682AFBD864008F
:101BF000BEF1010E0560E4B2EBD11A689142FCD847
:101C000039680660240601F1780100F183801A68C2
:101C10008A1A682AFBD8056098F800403CB184FA1B
:101C20005AF4069AE4B204FB02F4C4F307244FF01A
:101C3000070E1A688A42FCD339680660220601F151
:101C4000780171D41A688A1A682AFBD86400BEF138
:101C5000010E0560E4B2ECD11A689142FCD83968F3
:101C60000660240601F1780167D41A688A1A682A86
:101C7000FBD8056098F802403CB184FA59F4079A01
:101C8000E4B204FB02F4C4F307244FF0070E1A6811
:101C90008A42FCD339680660220601F1780155D4E6
:101CA0001A688A1A682AFBD86400BEF1010E056022
:101CB000E4B2ECD11A689142FCD839680660220679
:101CC00001F178014BD41A688A1A682AFBD8049A61
:101CD000056090440BF1FF3B98F801403CB184FA59
:101CE0005CF4059AE4B202FB04F4C4F3072462B680
:101CF000BBF1000F7FF44CAF62B6274B1B68ABE61D
:101D00001A688A1A2C2A7FF672AF1A688A1A2C2A45
:101D1000F6D86CE71A688A1A2C2A7FF67CAF1A6804
:101D20008A1A2C2AF6D876E71A688A1A2C2A8DD9AC
:101D30001A688A1A2C2AF7D888E71A688A1A2C2A6D
:101D400097D91A688A1A2C2AF7D892E71A688A1A39
:101D50002C2AA9D91A688A1A2C2AF7D8A4E71A6853
:101D60008A1A2C2AB3D91A688A1A2C2AF7D8AEE70D
:101D700084FA5CF4E3B26A1C02FB03F30592C3F33A
:101D80000724A0E54B1C0593F3E662B664E600BFAA
:101D9000FCED00E0001000E0041000E0C0F00F4097
:101DA000002310B4104C4172026104600372C360DE
:101DB00041B1194600E0026942F82310427A01332A
:101DC0009A42F8DC094B1A680AB90BE01A465369C3
:101DD000002BFBD15061002343618380C380837259
:101DE00010BC70471860F6E758C60000E0BDFF1F42
:101DF00012490A6838B50023114D05600446437244
:101E000003610372C3600AB916E01A465369002BD6
:101E1000FBD15461204600250A4B6561A580E58011
:101E2000A57240F8183B04F0E5FE2046E5662567FC
:101E300002F048FE204638BD0860EBE7E0BDFF1F1A
:101E400058C6000034CA000010B5124C1248214692
:101E500004F02EFB08B92C2010BDA1684B1C14D037
:101E60000E4B89B2002402E001342C2C08D033F848
:101E7000022F9142F8D1084804F0C2FAE0B210BD36
:101E8000054804F0BDFA204610BD034804F0B8FA36
:101E90002D2010BD34B4FF1F50B4FF1FFE93FF1F51
:101EA00008B50821114808F00FFD114802F060FC48
:101EB00040210F4802F0FAFC07210E4806F00EFB05
:101EC0000E210C4806F052FB0A210B4804F0BEFE1E
:101ED00058B91C21094806F089FF094808F050FC50
:101EE0004FF4FA7007F0B6FAF3E708BD0082FF1F5F
:101EF00054B4FF1F6094FF1F50BAFF1FF8C60000C4
:101F00005C96FF1F814838B5036813F0010400F0A8
:101F1000D2800E2300227E497E4803F06FFB7E486C
:101F2000036813F0010400F0A3800E231A467849D9
:101F30007A4803F063FB7A48036813F0010475D014
:101F40000E231C227249774803F058FB7648036839
:101F500013F0010448D02A226D497448744D754C21
:101F60000E2303F04BFB744A74491378002BFCD00A
:101F70000B78DB07F9D52B6820681B1A0E2BF4D9D8
:101F80000C216F4806F032FF6E4808F0F9FB0C2177
:101F90006D4806F02BFF6B4808F0F2FB6B4801F030
:101FA00067FF6B4804F0E4F9FFF77AFF022264212F
:101FB000684801F0C7FE01224FF41671654801F030
:101FC000C1FE00224FF47A71624801F0BBFE192174
:101FD000614806F00BFF5B4808F0D2FB5F48BDE8A4
:101FE0003840017803F05CBB07F0BCF80028B2D0A1
:101FF0005B494E4B08685C60FF2201255C619C6078
:102000009D741A735A739A73DA731A745A74002887
:1020100075D0544A116801B18B600024524942487E
:102020001C841360196007F0A3F894E707F09AF88E
:10203000002885D04A493B4B08685C60FF22012597
:102040005C619C609D741A735A739A73DA731A7484
:102050005A74002855D0434A116801B18B6000249E
:1020600042492F481C841360196007F081F867E724
:1020700007F078F800283FF458AF3949274B086833
:102080005C60FF2201255C619C609D741A735A7329
:102090009A73DA731A745A74002834D0314A11686A
:1020A00001B18B60002432491B481C841360196005
:1020B00007F05EF839E707F055F800283FF429AF3C
:1020C0002749144B08685C60FF2201255C619C6015
:1020D0009D741A735A739A73DA731A745A7460B1CE
:1020E000204A116801B18B600024224907481C84F2
:1020F0001360196007F03CF80BE70B60F0E70B602A
:1021000087E70B60A7E70B60C8E700BFE49FFF1FEE
:1021100036A4FF1FE89FFF1FBC9FFF1FC09FFF1F2C
:10212000949FFF1F989FFF1F6C9FFF1F709FFF1FB3
:10213000CCBCFF1FD8BFFF1FB0BDFF1FC8BCFF1F17
:1021400018C700005C96FF1F28C70000F8A3FF1FF8
:1021500050B4FF1FA4A2FF1F38C7000088B8FF1F9C
:1021600098B8FF1FA8B8FF1FDCC60000B8C6000063
:1021700094C6000070C6000008B5074802F068FF6A
:1021800020B10548BDE8084002F0B2BC034902484E
:10219000BDE8084002F0DCBCB4B1FF1F54C700002A
:1021A00010B586B0FFF750FE2D2839D8DFE800F0D3
:1021B0003A385338383838383838385E383838385C
:1021C0003838383838387638383838383838383851
:1021D000383838383838383838387A3838170621A7
:1021E0003D4806F003FE3D4808F0CAFA3C493D4A26
:1021F0000B680493049B10681B1AC72B3A4B5ED8DC
:102200001B78002B5ED00B2B06D138480478631E58
:10221000002C5FD0DBB203700B680593059B136045
:1022200006B010BD0B21324806F0E0FD2B4808F047
:10223000A7FA2E4A2A491378096802910A332948D5
:102240002949029C0460FF2BA8BFFF2300201370C4
:10225000087006B010BDFF2340F2DC5200920A2144
:102260001A46244801F0E2FE06B010BD0B212248B8
:1022700006F0BCFD194808F083FA1C4A1849137887
:102280000968039117481849039C04600A3B23EA34
:10229000E3730B201370087006B010BDFFF76CFFDE
:1022A00006B010BD0D21154806F0A0FD0B4808F042
:1022B00067FA1349134801F02BFD06B010BD2C221C
:1022C0001A70ADE7094803780133B3F5807FA1D1D7
:1022D000FF23A0E700239EE788C700005C96FF1F4E
:1022E000CCBCFF1F74B4FF1F5894FF1F60B1FF1FC9
:1022F00060C70000F8A3FF1F6CC7000078C700008C
:10230000E0AEFF1FA4A2FF1F03681A78093A262A2D
:1023100027D8DFE802F01A1A26261A2626262626AD
:10232000262626262626262626262626261A262659
:1023300026262626262626262626262614005A78EF
:102340002A2A0FD02F2A07D07047591C01605A78CB
:102350000B46DBE70A2AF8D0013303601A78002A1B
:10236000F8D17047591C4A1C02604B78002BF8D0FA
:102370002A2B01D01146F6E753782F2BFAD1CB1C2C
:102380000360CA78C2E700BF2DE9F04F056885B049
:1023900081465DB32A68082112682846904728B311
:1023A000002205604260044609F104063046FFF74A
:1023B000ABFFD9F8042011787B291FD0B74E3368C2
:1023C00013F0010503D0B64805B0BDE8F08F3046E4
:1023D00006F0C8FE0028F6D0B14C30462560656096
:1023E00006F0C6FE204605B0BDE8F08FAB4E326861
:1023F00012F0010500F0C980A94CD5E70132C9F8F7
:1024000004203046FFF780FFD9F8042011787D2999
:1024100000F0EA8047F6ED7801943046D9F808508C
:10242000FFF772FFD9F804201078272879D02228E6
:1024300077D020F02003413BA0F12B01192BC9B22A
:1024400062D90E2928FA01F35CD9D9F808300024A2
:102450005A1CC9F808201C70002DAFD03046FFF779
:1024600053FFD9F804301A783A2AA7D199F80C20EA
:102470000133C9F80430002AA0D0013A89F80C20B1
:102480003046FFF741FFD9F804301F785B2F00F08A
:10249000E4807B2F40F0AF804846FFF775FF03686C
:1024A0008246002B00F061814FF0070B99F80C3049
:1024B000013389F80C30019B5F683C461FB9BCE1D1
:1024C0002468002C6ED06168284609F0FDFC0028C5
:1024D000F6D184F808B0C4F80CA03046FFF714FF1A
:1024E000D9F8042013787D2B7DD03046FFF70CFF00
:1024F000D9F804301A782C2A7FF460AF0133C9F878
:1025000004308AE7DC07A0D5D9F808300132591C1D
:10251000C9F80420C9F808101870D9F804201078F8
:1025200087E7571CC9F804705378002B8DD002320E
:102530009842C9F8042012D187E7D9F80820511C25
:10254000C9F808101370D9F804703B78002B3FF4D9
:102550007CAF7A1C9842C9F804203FF476AF5C2B1C
:10256000EBD17B784F49622B02D10CE093420AD029
:1025700011F8022F002AF9D1002B3FF466AF023781
:10258000C9F80470D9E74B78F6E7304606F0EAFD63
:1025900000283FF431AF424C30462560656006F0BC
:1025A000E7FD01E7019B1868002800F0C980036877
:1025B00010211B6898470746002800F07282019A94
:1025C0000023516803600372002900F03B813C4600
:1025D00000E019460B68002BFBD10C60002C3FF487
:1025E000EDAE656075E7019C01322046C9F8042014
:1025F00005B0BDE8F08F272F1CBF223FB7FA87F741
:10260000304614BF7F090127D9F808A0FFF77CFEE8
:10261000D9F804201078272852D0222850D020F052
:102620002003413BA0F12B01192BC9B279D90E2906
:1026300028FA01F373D9D9F808300022591CC9F8D7
:1026400008101A70BAF1000F00F08F8097420CBF8B
:102650004FF0010B4FF0020B28E7D9F800703FB3A1
:102660003B6808211B683846984708B307604460F8
:1026700007463046FFF748FED9F804301A785B2A3F
:1026800079D0094B1B6813F001075BD0074F3B68FB
:10269000002B6AD0BA464FF0060B07E70CA0FF1FCD
:1026A00010A0FF1F94C7000018A0FF1F1CA0FF1F51
:1026B000BA4B1B6813F0010700F0C880B84FD8E789
:1026C000541CC9F804405378002BB4D00232834222
:1026D000C9F8042010D1AEE7D9F80820511CC9F878
:1026E00008101370D9F804402378002BA3D0621C83
:1026F0009842C9F804209ED05C2BEDD16378A9499B
:10270000622B02D11AE0934218D011F8022F002A4E
:10271000F9D1002B8FD00234C9F80440DCE7DB0785
:1027200089D5D9F808300132591CC9F80420C9F8F4
:1027300008101870D9F80420107870E74B78E8E793
:10274000394647E7954806F00DFD00289ED0944B8A
:1027500092481F605F6006F00BFD914F97E70133D1
:10276000C9F804303B68002B94D199F80C20013251
:1027700089F80C2022E60133C9F804303046FFF70F
:10278000C3FDD9F804301A785D2AE8D099F80C30E6
:10279000002B3FF476AF013B89F80C303046FFF751
:1027A000B3FDD9F8043093F800A0BAF15B0F60D004
:1027B000BAF17B0F40F085804846FFF7E5FD0368DE
:1027C0000446002B00F077814FF0070A99F80C308F
:1027D000013389F80C30386838B103680C211B6864
:1027E000984710B10023036003717A680AB93AE090
:1027F0001A461368002BFBD1106000283FF441AF4C
:1028000080F804A084603046FFF77EFDD9F80430DC
:102810001A785D2A29D03046FFF776FDD9F80420D2
:1028200013782C2B7FF42DAF99F80C300132C9F8B6
:102830000420002B3FF425AFADE7019B186800286A
:102840007FF4B5AE019B3C465F60C7E6534806F097
:1028500089FC00283FF432AF514B50481F605F6045
:1028600006F086FC2AE77860C7E70133C9F8043030
:102870000DE7D9F80040002C00F0FC802368082107
:102880001B6820469847002800F0F480002304606D
:10289000436004463046FFF737FDD9F804301A7814
:1028A0005B2A00F09D803D4B1B6813F0010400F093
:1028B00089803B4C2368002B00F0FD804FF0060A16
:1028C00084E7BAF1270F1CBFAAF1220ABAFA8AFAE2
:1028D000304614BF4FEA5A1A4FF0010AD9F808409F
:1028E000FFF712FDD9F8042092F800E0BEF1270F9F
:1028F00030D0BEF1220F2DD02EF020014139AEF1A3
:102900002B031929DBB216D90E2B28FA03F110D9A3
:10291000D9F808300022591CC9F808101A70002C88
:1029200000F0C98092450CBF4FF0010A4FF0020A37
:102930004CE7C907ECD5D9F808300132591CC9F861
:102940000420C9F8081083F800E0D9F8042092F8B0
:1029500000E0D1E7501CC9F804005378002BD7D011
:1029600002329E45C9F8042010D1D1E7D9F80820D9
:10297000511CC9F808101370D9F804000378002B13
:10298000C6D0421C9E45C9F80420C1D05C2BEDD1B5
:1029900043780449622B09D112E000BF18A0FF1F41
:1029A0001CA0FF1F94C70000934209D011F8022F0A
:1029B000002AF9D1002BABD00230C9F80400D5E7CA
:1029C0004B78F7E7414806F0CDFB00283FF471AFA4
:1029D0003F4B3E481C605C6006F0CAFB3C4C69E71C
:1029E0000133C9F804303046FFF78EFCD9F80430C3
:1029F0001A785D2A58D00DF1080B4FF0000A59469D
:102A000048468DF808A000F065F800283FF44BAF69
:102A10002068002837D003680C211B6898470346BC
:102A200018B1C0F800A080F804A062680AB928E0D4
:102A30000A4611680029FBD11360002B3FF433AF25
:102A40009BE80300043383E803003046FFF75CFC97
:102A5000D9F804301A785D2A33D03046FFF754FC99
:102A6000D9F804301A782C2A7FF41DAF0133C9F845
:102A70000430C4E7154B1B6813F0010405D0144C57
:102A800008E76360D9E70346CFE7104806F06AFB22
:102A90000028F4D00E4B0D481C605C6006F068FB0B
:102AA000EDE7019B59688FE50133C9F804302368CD
:102AB000002B7FF403AF99F80C30013389F80C3008
:102AC000DFE50133C9F80430F4E600BF18A0FF1FAA
:102AD0001CA0FF1F2DE9F043057B83B01DB92846DC
:102AE00003B0BDE8F0830446013D071D0573384679
:102AF0000E46FFF709FC63681D785B2D4BD07B2DDC
:102B000033D0272D1CBF223DB5FA85F5384614BFBA
:102B10006D090125A768FFF7F7FB60680178272991
:102B20005ED022295CD047F6ED7E21F02003413BA8
:102B3000A1F12B02192BD2B224D90E2A2EFA02F3BC
:102B40001ED9A3680022591CA1601A70002F00F042
:102B50008780002D75D1012577603570237B28464D
:102B60000133237303B0BDE8F0832046FFF70CFC6C
:102B70000368002B74D00723706033700125EDE7E4
:102B8000DB07DED5A36801305A1C6060A2601970B3
:102B900060680178C9E72568002D63D02B6808219B
:102BA0001B682846984700285CD0002305604360D6
:102BB00005463846FFF7A8FB63681A785B2A5AD0A7
:102BC000DFF874815A4DD8F8003013F001073CD07B
:102BD0002B68002B44D00623756033700125BDE7B8
:102BE00000F1010EC4F804E04378002BA9D00230B4
:102BF0008B4260600FD1A4E7A268501CA0601370E4
:102C0000D4F804E09EF80030002B9AD00EF10102B7
:102C10009942626095D05C2BEED19EF80130454818
:102C2000622B02D10BE0934209D010F8022F002A48
:102C3000F9D1002B85D00EF102026260DCE7437807
:102C4000F7E702237760337088E7404606F08AFA98
:102C50000028BDD040462F606F6006F089FAB7E7C4
:102C600000257BE7DFF8D080D8F8003013F00105AD
:102C70004BD02F4D9DE7013363603846FFF744FB8F
:102C800063681A785D2A3BD0E8464FF00009414658
:102C900020468DF80090FFF71DFF002890D028688F
:102CA00088B303680C211B689847864618B1C0F8A2
:102CB000009080F804906A680AB936E01A461368F2
:102CC000002BFBD1C2F800E0BEF1000F3FF478AF5B
:102CD00098E803000EF1040E8EE803003846FFF773
:102CE00013FB63681A785D2A0AD03846FFF70CFB9D
:102CF00063681A782C2A7FF463AF01336360C6E7F8
:102D00000133636064E78646D5E7404606F02AFA59
:102D10000028AED0DFF818904046C9F80050C9F836
:102D2000045006F025FA4D4643E7C5F804E0CBE72A
:102D30001CA0FF1F94C7000018A0FF1F10B4D8B13B
:102D400003782B2B24D02D2B18D0A3F13002092A85
:102D500020D802460024002000EB800003EB400056
:102D600012F8013FA3F130013038092900F0FF00CB
:102D7000F2D90CB14042C0B210BC70470124437874
:102D8000A3F13001092900F10102E4D90020F0E7A4
:102D90000024F4E70020EFE710B4D0B103782B2B28
:102DA00023D02D2B17D0A3F13002092A1FD80246B9
:102DB0000024002000EB800003EB400012F8013FEC
:102DC000A3F130013038092980B2F3D90CB1404267
:102DD00080B210BC704701244378A3F13001092967
:102DE00000F10102E5D90020F0E70024F4E700201B
:102DF000EFE700BFF0B59A4C87B005F0CDFF002893
:102E0000FBD005F08DFFC0B20D2804F8010FF4D1FE
:102E100001E005F085FF05F0BFFF0028F9D1914AD8
:102E2000914B029202A80A22039304938DF8142076
:102E3000FFF7AAFA446806461CB967E02468002C2C
:102E400064D06168894809F03FF80028F6D1237AF8
:102E5000012B5DD0022B00D1E0680446204609F02A
:102E6000AFF90146204605F0C1FF814807F088FC14
:102E70008049204609F028F8002853D07E49204692
:102E800009F022F8002800F0A8807C49204609F0CB
:102E90001BF8002800F0BD807949204609F014F89D
:102EA00000285BD07749204609F00EF80546002837
:102EB00000F06D817449204609F006F805460028A7
:102EC00000F04B817149204608F0FEFF002868D0D1
:102ED0006F49204608F0F8FF002800F0B0836D49E4
:102EE000204608F0F1FF002800F0B28320466A492E
:102EF00008F0EAFF002800F099831321674805F0E5
:102F000075FF5B4807F03CFC07B0F0BD0024A5E767
:102F1000E4682CB12146624808F0D6FF00289CD016
:102F200020469AE77468002C00F00A81254603E0E9
:102F30002D68002D00F0908069685A4808F0C4FFA1
:102F40000028F5D12B7A052B00F27D83DFE813F002
:102F5000B801D301D301D101D101CD0110215248D3
:102F600005F044FF424807F00BFC7468002C00F0A9
:102F7000C882254603E02D68002D00F0868169682F
:102F80004A4808F0A1FF0028F5D12B7A052B00F262
:102F90008583DFE813F0F602E902E902FC02FC0295
:102FA000F8027568002D00F016832C4603E02468B3
:102FB000002C00F00E8361683D4808F085FF002872
:102FC000F5D1237A052B00F2A883DFE813F02D0357
:102FD000210321031F031F03E2027468002C00F089
:102FE000E781254603E02D68002D00F0DD8069684B
:102FF0002E4808F069FF0028F5D12B7A052B00F246
:103000003E83DFE813F02F02220222022002200278
:103010001C021021274805F0E9FE154807F0B0FB17
:103020007468002C00F02381254603E02D68002DF4
:1030300000F0EF8069681B4808F046FF0028F5D1D2
:103040002B7A052B00F23983DFE813F0F7013A02FF
:103050003A02340234023602002C71D026462DE0AA
:1030600077B4FF1FF0B4FF1F78B4FF1FA0C70000A4
:103070005C96FF1FB0C70000D4C70000E8C700007F
:1030800008C8000028C8000038C8000040C8000078
:1030900060C8000070C8000078C8000094C8000034
:1030A000A8C70000BCC7000014C80000E0C70000AB
:1030B0004CC80000F4C7000036688EB171689448AF
:1030C00008F002FF0028F7D1337A052B00F2C882FE
:1030D000DFE813F00600FA00FA00F800F8004501F6
:1030E000002C2ED00027264601E036688EB171688C
:1030F000884808F0E9FE0028F7D1337A052B00F262
:10310000C382DFE813F006001F011F013F013F01EA
:10311000EE00BCB1002601E02468A4B161687E48DD
:1031200008F0D2FE0028F7D1237A052B00F2B182F5
:10313000DFE813F009001B011B011901190104014B
:103140000025002700260020009033463A462946F5
:10315000724801F0EBF807B0F0BD0521704805F0AA
:1031600045FE704807F00CFB0F21012007F0A2FB81
:103170002C46C5B23821002007F09CFB013481B2F7
:10318000664800F0ABFEE3B29D42F3D2BCE60721F5
:10319000654805F02BFE634807F0F2FA5F4801F03E
:1031A000F5F8624B1D70AFE6002C00F00181264659
:1031B00001E036688EB171685D4808F085FE002830
:1031C000F7D1337A052B00F25582DFE813F00600C1
:1031D00029012901230123012501002C00F0E980A8
:1031E0000027264603E03668002E00F0CD80716887
:1031F000504808F069FE0028F5D1337A052B00F21B
:103200002A82DFE813F0C100FB00FB00F900F9009F
:10321000F50064B3264601E036688EB171683C481B
:1032200008F052FE0028F7D1337A052B00F24A82CB
:10323000DFE813F0060033013301310131012D01C4
:10324000B4B1002601E024689CB16168314808F0FF
:103250003BFE0028F7D1237A052B00F22982DFE814
:1032600013F0080009010901070107010301002506
:1032700000260020034632462946284801F072F80D
:103280002A4B00221A7007B0F0BD002C00F03981E3
:10329000264603E03668002E00F01F81716824483E
:1032A00008F012FE0028F5D1337A052B00F2FB81DD
:1032B000DFE813F013014E014E014C014C014801AF
:1032C0000025CBE6377B0EE7F768002F3FF40BAF06
:1032D0003946194808F0F8FD002840F032820127ED
:1032E00001E7F6687642F6B218E7ED686D42EDB296
:1032F000B4E62D7BB2E6ED68002D3FF4AFAE294673
:103300000D4808F0E1FD002840F011820125A5E6F6
:10331000C8C70000B8C70000CCC70000F8A3FF1F53
:1033200068C800005C96FF1F30C800005994FF1F5A
:10333000E4C70000DCC70000C0C70000E0684042EE
:1033400080B201E7F668002E3FF4E8AE31469348BC
:1033500008F0BAFD002840F0C4810126DEE6F768D7
:103360007F42FFB2BFE6A089EEE6E468002C00F0E1
:1033700010822146894808F0A7FD002840F0B68158
:103380000120E1E6367BC9E6A4B1002601E024680D
:103390008CB16168824808F097FD0028F7D1237A44
:1033A000052B00F26281DFE803F0061616141410F4
:1033B0000025002700260020009033463A46294683
:1033C000784800F033FE07B0F0BDE068404280B2BC
:1033D000F2E7A089F0E7E468002C00F0C081214604
:1033E0006E4808F071FD002840F0B0810120E3E74D
:1033F000F3685B429EB2CCE7B689CAE7F668002E56
:10340000C7D03146654808F05FFD002840F08A814A
:103410000126BEE7B789E4E6F7687F42BFB2E0E67F
:10342000F768002F3FF4DDAE39465C4808F04CFDEC
:10343000002840F068810127D3E60025EAE6ED6820
:103440006D42ADB2B3E6AD89B1E6ED68002D3FF453
:10345000AEAE2946514808F037FD002840F06C8197
:103460000125A4E60025A2E6E0684042C0B201E7DB
:10347000207BFFE6E468002C00F084812146474869
:1034800008F022FD002840F03A810120F2E6F668BB
:103490007642F6B2D9E6367BD7E6F668002E3FF4E0
:1034A000D4AE31463D4808F00FFD002840F01481AD
:1034B0000126CAE62D7BADE6ED686D42EDB2A9E6C8
:1034C000ED68002D3FF4A6AE2946344808F0FCFC18
:1034D000002840F00F8101259CE69CB1002601E008
:1034E000246884B16168304808F0EEFC0028F7D108
:1034F000237A052B00F2EB80DFE803F005171715A0
:10350000151100250026002003463246294625488D
:1035100000F0F4FE254B00221A7007B0F0BDE06801
:10352000404280B2F0E7A089EEE7E468002C00F0AA
:103530001C812146194808F0C7FC002840F0118181
:103540000120E1E7F6687642B6B2CBE7B689C9E773
:10355000F668002EC6D03146104808F0B5FC0028A9
:1035600040F012810126BDE7ED68002D3FF490AEDA
:1035700029460A4808F0A8FC002840F0EB80012505
:1035800086E6002584E6ED686D42ADB280E6AD8941
:103590007EE6E4686442E4B20CE000BFC0C700000D
:1035A000CCC70000F8A3FF1FDCC700005994FF1F21
:1035B0002D688DB16968784808F086FC0028F7D13D
:1035C0002B7A052B00F2A480DFE803F00613131119
:1035D000110D002DEED100240020024621466F4837
:1035E00000F098FC90E4E8684042C0B2F5E7287B20
:1035F000F3E7ED68002D00F0BE802946684808F02A
:1036000063FC002840F0B3800120E6E7247BD1E78B
:10361000E468002CCED02146614808F055FC002813
:1036200040F0AB800124C5E70024C3E711215D48C9
:1036300005F0DCFB5C495D4800F06AFB64E4574838
:1036400000F0C4FC60E4E86808F00EF8C5B205E5D7
:10365000FEF792FD58E4F06808F006F886B298E6A6
:10366000F06808F001F8C7B23DE5E06807F0FCFF3C
:1036700080B2A1E6F06807F0F7FF87B2B1E5E8682D
:1036800007F0F2FF85B292E5F06807F0EDFFC6B2F1
:1036900044E5E06807F0E8FF80B255E5E86807F028
:1036A000E3FF85B2F4E5F06807F0DEFF86B219E7C4
:1036B000E06807F0D9FFC0B2DCE5E86807F0D4FFA6
:1036C000C5B2A7E5F06807F0CFFFC6B2BDE5E06878
:1036D00007F0CAFF80B217E73046FFF72FFB064618
:1036E000B3E53046FFF72AFB064617E52046FFF70D
:1036F00053FB29E52846FFF721FB05468AE52046CE
:10370000FFF71CFBB6E53846FFF746FB074668E5C2
:10371000E86807F0A9FFC0B25FE7E06807F0A4FF20
:10372000C4B247E73046FFF737FB064631E6284686
:10373000FFF704FB054691E42846FFF72DFB0546FD
:1037400035E53846FFF7FAFA0746CCE42046FFF79E
:1037500023FB31E62846FFF71FFB054698E5204688
:103760002AE62046FFF718FBCEE62046CCE62846A0
:10377000FFF7E4FA31E728462FE72046FFF7DEFAA5
:10378000044617E7204675E53046FFF705FB064679
:10379000A8E62046D8E400BF54C80000F8A3FF1FE5
:1037A000C0C7000080C80000E0AEFF1FA4A2FF1F3A
:1037B00000B583B0FEF7F4FC05F0EEFAF8B91A494B
:1037C0001A4A0B680093009B10681B1A062B02D83C
:1037D00003B05DF804FB0B680193019B1448136070
:1037E00000F022FA134B93F8F52092B9124B1A7895
:1037F00042B1104800F0E2FD03B05DF804FBFFF7B2
:10380000F9FADCE70D48012201781A7001F048FF4F
:10381000EFE70A480022017883F8E62001F040FF34
:10382000044800F0CBFDE7E7CCBCFF1FA0AEFF1FB4
:10383000A4A2FF1FF8A3FF1F5994FF1F88B8FF1F02
:10384000FFF7B6BF2DE9F04F082185B0C348C44F3C
:10385000C44EC54DDFF8689302F082FDC34800F006
:10386000BBFAC24AC249C34800F0C2F9BF4AC049C4
:10387000C14800F0BDF9C14AC14B11680291029CD8
:1038800012680392BF490398BF4A08604FF48071E1
:10389000D96018464FF000081460BC49BC4ABD4CC2
:1038A0001C60C3F8088007F0FFFEBB48FEF7A0FAD3
:1038B000B74ABA49B84807F0F7FEB948FEF798FA90
:1038C000B34AB649B64807F0EFFEB648FEF790FA9D
:1038D000AF4AB249B34807F0E7FEB348FEF788FAAB
:1038E000AB4AAE49B04807F0DFFE07F128020421D9
:1038F0003846FEF755FA4FF4803406F128020421C9
:103900003046BC61FC613C627C62C7F80090FEF707
:1039100047FADFF8B0E2B461022005F11802F46161
:10392000346274624346C6F80090414685F80880C8
:10393000C5F80C80C5F800E068722A612C4600E0EA
:10394000226942F823106A7A874801339A42F7DCE9
:10395000964B1A680AB9FFE01A465369002BFBD14F
:103960005561DFF864A2924B7F482B6000246C61A4
:10397000AC80EC80AC7201F0BDFD874BDFF84CB23F
:10398000CAF8003050468AF80840CAF804708AF82D
:103990000940CAF80C408AF8104007F08BF87C4ABE
:1039A0008449DFF82C92DFF82C82504607F07CFE29
:1039B000794B8BF809404FF0010A58468BE84800D4
:1039C000CBF80C408BF810408BF808A007F072F889
:1039D0006F4A7849584607F067FE714BC9F80030C6
:1039E000484689F80840C9F8047089F809A0C9F860
:1039F0000C4089F8104007F05DF8654A6D49DFF822
:103A0000D8B1484607F050FE654B88F808A088E812
:103A1000880040464FF0020388F80930C8F80C408F
:103A200088F8104007F046F8594A6249DFF8789163
:103A3000404607F039FEDFF8A4818BF808400323E5
:103A400058468BF809300193CBF80470CBF80C4042
:103A50008BF81040CBF8009007F02CF84C4A5549F1
:103A6000584607F021FEDFF878B1019B88F809304D
:103A70004046C8F80090C8F8046088F808A0C8F864
:103A80000C4088F8104007F015F8414A4949DFF822
:103A90005491404607F008FEDFF808818BF8084093
:103AA0005846CBF804608BF809A0CBF80C408BF893
:103AB0001040CBF8008006F0FDFF354A3D495846DE
:103AC00007F0F2FDDFF820B1C9F800804FF00203E3
:103AD000484689F80930C9F8046089F808A0C9F88F
:103AE0000C4089F8104006F0E5FF294A3149DFF81B
:103AF000FC80484607F0D8FD58468BF80840CBF8C4
:103B00000070CBF804508BF80940CBF80C408BF8D0
:103B1000104006F0CFFF1E4A2649584607F0C4FD64
:103B2000404688F809A0C8F80060C8F8045088F832
:103B30000840C8F80C4088F8104006F0BBFF40462B
:103B4000134A1C4907F0B0FD1B4B1C4A1A600A229D
:103B50001A7205B0BDE8F08F186002E750B4FF1F7D
:103B600000B5FF1F38B5FF1FC4A3FF1FF8A3FF1F39
:103B7000A8C80000A4A2FF1F34A3FF1FCCBCFF1FD6
:103B8000F0B4FF1F74B4FF1FA0AEFF1F7D0500003F
:103B9000FC93FF1F64C60000B4B1FF1F6505000061
:103BA00070B5FF1F24A0FF1FE0AEFF1FE0BDFF1F89
:103BB00040CA00005905000054B4FF1F0CCA0000A1
:103BC00028CA000058C60000A4AEFF1FB8AEFF1FF1
:103BD000CCAEFF1FDCB4FF1F60B4FF1F64B1FF1F3A
:103BE00078B1FF1F8CB1FF1FE4A3FF1FA0B1FF1F1F
:103BF00070B50C4B82B01B680193019B436000239E
:103C000004460E4615460370437083700375437572
:103C100019467822183008F07BF82046A660256106
:103C200002B070BDCCBCFF1F037D9BB142788AB14E
:103C3000427D93420FD970B5304D41682B6882B0F8
:103C400003320093009B50F832205B1A9A4205D948
:103C500002B070BD704700234370704704460A21CC
:103C6000274805F0C3F82B6801930199636825483C
:103C7000C91A0A22002306F093FD224806F080FDAF
:103C80000621214805F0B2F80A220023617D1D4873
:103C900006F086FD1B4806F073FD09211B4805F060
:103CA000A5F8637D174804EBC303197F06F0B8FD40
:103CB000144806F065FD637D04EBC302127F012A00
:103CC00017D008D3022A03D1206900F091F9637D4F
:103CD00001336375BCE70F21012006F0EBFD0025E1
:103CE000C6B20135206900F0D7F8EBB29E42F8D297
:103CF000EDE7206900F06AF9637DE9E7CCBCFF1FBE
:103D0000B4C800005C96FF1FC0C80000C8C800000F
:103D100030B5044683B008460D4601F099F960B904
:103D2000012360756370E5602846A16800F010FF0C
:103D3000034B1B680193019B636003B030BD00BF60
:103D4000CCBCFF1FF8B5047D0E2C3ED8A4B127468D
:103D5000002300EBC40E06E050F83560B1421FD3DB
:103D60000133A3420ADC9C4204F10205F4D1CEF8EF
:103D700018108EF81C20F3E78161027705460134A4
:103D800004752121124805F031F8297D11480023DE
:103D90000A2206F005FD0F4806F0F2FC0120F8BDEE
:103DA0009C420DDD00EBC40500E02E6995F814E09F
:103DB000AE61013F9F4285F81CE0A5F10805F4D1F2
:103DC00000EBC30399611A77D8E74FF0FF30F8BDD5
:103DD000D4C800005C96FF1FF0B5224C83B00646A5
:103DE000074604F1300E20686168A268E3683D462A
:103DF0000FC5103474452F46F5D1206861681A4A02
:103E00001A4B03C7116801910199126800929C88AE
:103E1000009D1868C6F8E810002301220A21C6F8A0
:103E2000EC50B487B06386F8E62086F8C322C6F863
:103E3000F01086F8F43086F8F530A6F8F630A6F8DB
:103E4000F83086F8FA3086F8C43206F5327406F691
:103E5000A8252046243400F04DFBAC42F9D1304671
:103E600003B0F0BDF8C80000CCBCFF1F30C9000093
:103E7000F8B5064600F5327500F138070446A11B77
:103E800014F8012B284689B200F050FBBC4205F122
:103E90002405F4D1F8BD00BF90F8F43070B513B12B
:103EA00090F8F530C3B90026054680F8F460382153
:103EB000304606F0FFFC80B200EBC00005EB80044A
:103EC0004FF4967184F8D062142006F0F3FC0123BD
:103ED000A4F8DE0284F8CB3270BD00BF90F8F43055
:103EE00010B513B190F8F53093B901EBC10100EBB7
:103EF0008104002380F8F4304FF4967184F8D032B6
:103F0000142006F0D7FC0123A4F8DE0284F8CB329B
:103F100010BD00BF90F8F4302DE9F0471BB190F8C8
:103F2000F530002B40D180460F462648132191469C
:103F3000002604F05BFF244806F022FC192188F8D3
:103F4000F460022006F0B6FC08F1FF34C0B232463D
:103F5000434608F5FC6108EB070C4FF0010E02E048
:103F60002433994220D014F8015FBD42F8D110FBF0
:103F700006F5B9F1000F19D198F8F4A0ADB2BAF175
:103F8000000F04D098F8F5A0BAF1000F07D188F817
:103F9000F42083F8D022A3F8DE5283F8CBE2243356
:103FA00001369942B6B2DED1BDE8F0879CF83850B0
:103FB00098F8F4A0AD1B15FB00F5ADB2BAF1000FF7
:103FC000E5D0DFE738C900005C96FF1F38B5052152
:103FD0000446002006F06EFC02210546002006F093
:103FE00069FCE9B2C2B22046BDE83840FFF792BF93
:103FF00090F8F43070B513B190F8F530A3B90025FE
:10400000044680F8F45000F5FC6684F8D0524FF472
:104010009671142006F04EFC0123A4F8DE0284F809
:10402000CB322434B442F0D170BD00BF2DE9F04F43
:1040300090F8F44085B0012CBDF8387000F018817C
:1040400090F8F540002C40F00C8106460C469E4846
:1040500016219046994604F0C9FE9C4806F090FB54
:10406000012386F8F43003A806F13E0101F06EFC4E
:1040700000259DF80C109DF80D209DF80E3086F857
:10408000FE40A6F8F87086F8FB1086F8FC2086F84B
:10409000FD3086F8C352092186F8FF8086F800912A
:1040A0008B488C4C04F0A2FE2B460A2296F8FE1098
:1040B000864806F075FB0D21874804F097FE2B46D5
:1040C0000A2296F8FB10814806F06AFB0E2183480D
:1040D00004F08CFE96F8C3127C4806F0A1FB7B48E6
:1040E00006F04EFBB6F8F83096F8002196F8FBE0A3
:1040F00096F8FC7096F8FD5096F8FE0096F8FF10C2
:10410000A4FB03431B09A6F8F63006F20113002AAC
:1041100040F0AA80704615B1002F40F0AF80C91B57
:10412000521BC901D2014FF000096D4C84FB01E81C
:1041300084FB02E4D217C2EBE402C917C1EBE80822
:1041400052004FEA48084FEA072B1F4693B2040279
:104150002D021FFA88F8019306F2C32A21124FEAB2
:104160002B202A128DF80C108DF80D00394603A86B
:104170008DF80E2001F034FB019B03374C44C344FF
:104180001D445745A4B21FFA8BFBADB2E6D13446AD
:1041900000250821534804F029FE29464B4806F023
:1041A0003FFB0521504804F021FE00230A2294F829
:1041B0000111464806F0F4FA05214C4804F016FEB9
:1041C00000230A2294F80211404806F0E9FA05217A
:1041D000474804F00BFE94F803113C4800230A22E0
:1041E00006F0DEFA0135394806F0CAFA962D04F1D8
:1041F0000304CED100240D2186F8FA403D4804F096
:10420000F5FDB6F8F610314806F00AFB2F4806F027
:10421000B7FA394B2E481B680393039BC6F8E83066
:10422000092104F0E3FD23460A2296F8FE102748F0
:1042300006F0B6FA0D21284804F0D8FD23460A22DC
:1042400096F8FB10214806F0ABFA0E21234804F043
:10425000CDFD96F8C3121D4806F0E2FA1B4806F0A1
:104260008FFA05B0BDE8F08F002908BF704652E70D
:1042700090F8C342002C7FF4E8AEF2E7CEEB0000EA
:10428000C0B2C91B521B04064FEAC1114FEAC21249
:1042900010D54042C0B2C0014042114C00B284FB74
:1042A0000049C017C0EBE9094FEA490970461FFAF7
:1042B00089F93AE70A4CC00184FB00094FEAD909A1
:1042C00070464FEA490930E74CC900005C96FF1F71
:1042D00064C90000B5814E1B70C9000080C9000090
:1042E0001FB6BE0D90C900009CC90000A4C9000003
:1042F000ACC90000B4C90000CCBCFF1F10B582B02F
:1043000004468DF80010684601A98DF802308DF83A
:10431000012001F065FA01AA04F13E00382101F004
:104320002FFA012384F8E63002B010BD30B585B015
:1043300004468DF80C1002A803A9BDF820508DF892
:104340000D208DF80E3001F001FB9DF80A309DF82C
:1043500009209DF8081000952046FFF767FE05B07C
:1043600030BD00BF10B582B004468DF804108DF842
:1043700005203E3001AA38218DF8063001F000FA00
:10438000012384F8E63002B010BD00BF90F8F4308D
:10439000022B10B5044605D090F8F53013B1022376
:1043A00080F8F430052394F8C422382104F13E004B
:1043B00001F0F6F9012384F8E63010BDF0B590F86D
:1043C000F4300022012B85B0064680F8F52031D06C
:1043D0000ED3022B0AD1454BD0F8EC401B68039357
:1043E000039BD0F8F0101B1B994263D905B0F0BDB8
:1043F00000F53275044600F1A807294603A800F02D
:1044000099F89DF80D209DF80E309DF80C1084F859
:104410003E1084F83F2084F840306B7A96F8F520FF
:1044200003341343BC4286F8F53005F12405E4D18A
:1044300005B0F0BD90F8C322002AD7D12B4CD0F89C
:10444000E80022680192019AB6F8F61086F8F53075
:10445000131A9942CAD823680293029B181A814200
:1044600016D800230A2296F8FA10214806F098F987
:104470001F4806F085F923680293B6F8F610D6F8BF
:10448000E830029A0B44D21A9142C6F8E830E8D9D3
:1044900096F8FA30952B17D80133DBB203EB4302C1
:1044A000324486F8FA30FE3206F13E00382101F03F
:1044B00067F99BE790F8C432C0F8F020013380F828
:1044C000C432FFF763FF91E703A906F1FE0001F094
:1044D00087F903AA382106F13E0001F051F90022C4
:1044E000012386F8F52086F8C3327FE7CCBCFF1F96
:1044F0005C96FF1F70B400220B49827083B009687C
:104500000191019E028064210A251E24C27002725C
:1045100042728272C28246608581C4810182418278
:1045200003B070BC704700BFCCBCFF1F018082701D
:10453000704700BFF0B5CB7885B00C46054643B94F
:104540004B7AABB9002328462B706B70AB7005B06B
:10455000F0BD4A7A62B9097AE270012262720029DA
:1045600031D0534A12680292029A6260002BE9D05D
:104570004F4B227A1B680393039B002AE2D16068A9
:10458000E18A1B1A9BB299421BD2218B994270D3AC
:10459000E18B484A03FB01F382FB0312DB17C3EBF9
:1045A0006213A382DAB2002301A829468DF80620FF
:1045B0008DF804308DF8053001F012F9284605B069
:1045C000F0BDA282EFE71921052006F073F9192149
:1045D000A081052006F06EF9C821E081322006F0A6
:1045E00069F9A689E28AE189638A324492B2114468
:1045F00080B289B247182283642202FB03F320822F
:10460000618393FBF0F0042193FBF6F32084E383B2
:10461000A783294804F0EAFB2188284806F000F91E
:104620001321274804F0E2FB0921264804F0DEFBB1
:10463000E18A224806F0F4F80521234804F0D6FB6D
:10464000A1891E4806F0ECF80721204804F0CEFBB3
:10465000E1891A4806F0E4F807211D4804F0C6FB7A
:10466000218A164806F0DCF8144806F089F8637AC7
:1046700077E7618B8B4212D9A08B984213D3208CA1
:104680000C4E628A5B1A00FB03F386FB0301DB1707
:10469000A3EB61131A4492B2A282D2B283E7628A78
:1046A000A282D2B27FE701236272A282A3727AE76A
:1046B000CCBCFF1F1F85EB51C4C900005C96FF1FD7
:1046C000CCC90000E0C90000ECC90000F4C900003A
:1046D000FCC9000010B5044605F0D2FE204610BD0E
:1046E000024A0349034806F0DFBF00BFFC93FF1FE7
:1046F000D5460000F0B7FF1F024A0349034806F001
:10470000D3BF00BFFC93FF1FD5460000F8B7FF1FC3
:104710000020704700207047F8B5144C037A242914
:1047200008BFC2805B0001250E462046C1F3072169
:10473000174684F83B3084F85E5084F85D5003F0EF
:104740009FFFF1B2204603F09BFFC7F307212046ED
:1047500003F096FFF9B2204603F092FF2946204667
:1047600004F032F9B0FA80F04009F8BD9894FF1FC8
:1047700070B5012604460671344803F095FF052004
:1047800004F068FE204644F260023021FFF7C4FFC7
:104790000546002858D06C2226212046FFF7BCFF92
:1047A0004FF4F97228212046FFF7B6FF40F6227237
:1047B0002C212046FFF7B0FF44F246423C21204620
:1047C000FFF7AAFF40F2371224212046FFF7A4FF8B
:1047D00044F2FF0230212046FFF79EFF73220221A0
:1047E0002046FFF799FF4FF4C87004F033FE41F6FE
:1047F0001D522E212046FFF78FFF0422114620462E
:10480000FFF78AFF4FF4987206212046FFF784FFD6
:1048100010220A212046FFF77FFF00220E212046AA
:10482000FFF77AFF43F63C4210212046FFF774FF62
:1048300047F67F7222212046FFF76EFF36222421A1
:104840002046FFF769FF6672284670BD9894FF1FE7
:1048500010B5044619B1012911D0002010BD552210
:104860002021FFF759FF0028F7D0E28842F0040228
:10487000204692B22421BDE81040FFF74DBF40F220
:1048800073122A21FFF748FF0028E6D08822202152
:104890002046FFF741FF0028DFD0E288204622F0C3
:1048A00004022421BDE81040FFF736BF38B50546A5
:1048B000F1B1802903799ABFC1F1800444EA04244C
:1048C000002433B9224628462221BDE83840FFF7AC
:1048D00023BFC288002322F0100203712421FFF7B6
:1048E0001BFF224628462221BDE83840FFF714BFAF
:1048F0000123037147F67F722221FFF70DFFEA883B
:1049000042F01002284692B22421BDE83840FFF759
:1049100003BF00BF0B4610B507490446184606F012
:10492000B7FC064906F0ACFB06F09EFE01462046A9
:10493000BDE81040FFF7BABF00000143EE7CFF3E28
:104940002DE9F8434FF00008064600F118054746E8
:1049500041463046002F4FD006F07EF8F0B12C686B
:10496000B4F5803F07F1040100F1040E07F5827CE5
:1049700027D05EF8042B34FB02F334FB12F903F367
:104980000F0209F30F03C2EA03430A6893FA12F312
:1049900041F8043B8C45ECD806F01AF808F1010800
:1049A000B8F1040F05F10405D2D1002F40D03046F4
:1049B0003946002206F036F83846BDE8F84306F0DE
:1049C00007B807F10C0100F10C0451F8083C54F849
:1049D000082C93FA12F341F8083C54F8042C51F8CF
:1049E000043C93FA12F38C4541F8043C04F10804AA
:1049F00001F10801E9D8CFE706F03AF807460028A8
:104A0000CCD02868B0F5803FC8D0391D07F5827436
:104A10000B6830FB03F230FB13F302F30F0203F3D6
:104A20000F03C2EA034341F8043B8C42F0D8B5E7D8
:104A3000BDE8F883024A0349034806F035BE00BFCB
:104A4000FC93FF1FD546000000B8FF1F024A034930
:104A5000034806F029BE00BFFC93FF1FD5460000A7
:104A600008B8FF1F024A0349034806F01DBE00BFF5
:104A7000FC93FF1FD546000010B8FF1F38B5074D47
:104A8000074C08482A46214606F00EFE2A462146D3
:104A90000548BDE8384006F007BE00BFFC93FF1F85
:104AA000D546000018B8FF1F20B8FF1F024A03496F
:104AB000034806F0F9BD00BFFC93FF1FD546000078
:104AC00028B8FF1F38B50446C06E0D23002584F8B2
:104AD0007B3284F87C32256610B105F079FFE566FB
:104AE000206F18B105F074FF0023236738BD00BFA5
:104AF00038B572B690F87B320D2B23D004460023D4
:104B00000D22C06E256FE366236784F87B2262B6B0
:104B100008B105F05DFF15B1284605F059FF04F115
:104B2000180002F07DF8084A13882BB95E21074867
:104B3000BDE8384003F0BABC013B9BB21380002BA8
:104B4000F4D038BD62B638BD38B8FF1F6094FF1F7F
:104B500070B52D4D88B00E460446FFF7C9FF5E21A3
:104B60002A4803F08DFC2B8801332B8072B6012379
:104B700032466846264902F007F908AA9DF8040063
:104B800012F8143D0299207784F82430216204F150
:104B9000250304F1320012F8011F03F8011B8342C0
:104BA000F9D1079B6363684602F032F862B604F1FC
:104BB000180002F043F8064648B92B88124AC3B9D8
:104BC0005E21124803F072FC304608B070BD00232D
:104BD0000D2014210822A4F87832A4F8763284F843
:104BE0007A3284F87C02216684F87B22304608B051
:104BF00070BD013B9BB21380002BF7D15E210348AF
:104C000003F054FCE0E700BF38B8FF1F6094FF1FBB
:104C100050BAFF1F836B9AB2012A01D0002070475F
:104C2000C26B4AF644418A4222D045F222618A424E
:104C30001BD042F611318A42F0D10F4904221B0CDD
:104C4000012B04D0022BE9D1490842F00102B0F84F
:104C50004630082B04D0102BE0D1490842F0020264
:104C6000816680F87C220120704704490422E6E72F
:104C700003490022E3E700BF34EE35171AF79A0B19
:104C80008D7BCD052DE9F04FB0F8766200F1760707
:104C900083B03E44E9B1DFF8B4B304460D464FF0AB
:104CA000080A4FF0000994F87B320D2B00F258816E
:104CB000DFE813F00F000F00D3009E000F000F007D
:104CC0000F000F00160113004500710087000F0050
:104CD0002266002003B0BDE8F08F226E94F87A328D
:104CE000AA4204F1380028BF2A46184431469046AB
:104CF00003F07CFF94F87A12B4F87622236E4144D4
:104D0000C8EB0303424484F87A12A4F8762223669F
:104D10000193002BDDD12046FFF77CFF002800F037
:104D20001F810A22019BC4F860A0C8EB0505464418
:104D300084F87A3284F87B22002DB4D1C9E7226E40
:104D400094F87A32AA4204F1380028BF2A4618445F
:104D50003146904603F04AFF94F87A12B4F876226E
:104D6000236E41444244C8EB030384F87A12A4F84A
:104D700076222366002BACD1A16BE26B22665945EB
:104D80004644C8EB050500F001810B2384F87B3213
:104D9000002D88D19DE7226EB4F876329542C0F09E
:104DA0004B8113440A21AD1AC4F860A0164484F85C
:104DB0007A92A4F8763284F87B12002D7FF473AFD8
:104DC00087E7226EB4F8761295422B4628BF134629
:104DD0001944D21AA4F876127FF47AAFED1A1E4461
:104DE000C4F860A084F87BA2002D7FF45CAF70E76C
:104DF000236E94F87D129D4228BF1D465A1B2266E1
:104E0000002900F0B680E16EB4F87430A06B01EBBD
:104E1000430C4FF0000EACF8040084F87DE2206FE4
:104E200096F801C016F802EB00EB430001339BB289
:104E30004EEA0C2E7F2BA4F87430A5F10205A0F8E1
:104E400004E000F2DA80002D40F09380002A00F0A8
:104E5000968084F87D5228463CE7236EE16E9D42A1
:104E600028BF1D46C5EB030C0236C4F860C003E042
:104E70000236002D00F0A280B4F8742016F8020C5F
:104E800016F801EC531C9BB201EB420240EA0E20E3
:104E90007F2BA4F87430A5F102059080E8D9002298
:104EA000204605F0BFFD0122E16E204605F0BAFD67
:104EB000E06E05F08DFD236E206F1D44F61B002370
:104EC000A4F876622566E36610B105F081FD256ED3
:104ED00015B90D2384F87B32012003B0BDE8F08FB3
:104EE000226E94F87A32AA4204F1380028BF2A468A
:104EF00018443146904603F079FE94F87A12B4F8DB
:104F00007622236E41444244C8EB030384F87A12AC
:104F1000A4F876222366002B7FF4DBAEA26B4A490D
:104F20008A421DD1226CA1F57001A1F2FB718A4267
:104F300016D101F15B41626C01F5F11101F60F41EF
:104F40008A4230D00C23A26C84F87A3284F87B3207
:104F5000C8EB050546442266002D7FF4A4AEB8E6F2
:104F60000D23002084F87C3284F87B3203B0BDE846
:104F7000F08F023D307896F801E024D172BB0D230A
:104F8000002084F87B3203B0BDE8F08F94F87C12E7
:104F900084F87D32CB0784F87B1226D46266002D1C
:104FA0007FF481AE95E6A26CA2F110011829D7D842
:104FB000092184F87A3284F87B12C9E7BCF1000F2A
:104FC0007FF487AEDBE7E16EB4F8743001EB430C9D
:104FD00040EA0E200236ACF8040020E73388A363D1
:104FE0000223284684F87D3274E605F09DFC206794
:104FF00000283FF46EAE226ED0E70022204605F076
:1050000011FD4FF00008E06E05F0E2FC0122216F77
:10501000C4F86C80204605F005FD206F05F0D8FC33
:10502000206EC4F87080F61B2844A4F876622066CF
:1050300000283FF44EAF4FE7521B1D442266A4F8F0
:105040007652002046E600BF5249464664617461CC
:1050500090F87B0207288CBF00200120704700BF1A
:1050600090F87B320D2B00F0AC802DE9F041044626
:1050700005F05AFCE066002800F0938094F87B323B
:10508000072B40F2908000232367B4F87832B4F8FD
:1050900076120022591A9142A4F8742005DD2046A8
:1050A000FFF7F0FD002840F0938094F87B320D2B41
:1050B00004F1180625D0304601F016FD08B304F1BE
:1050C00076074FF000080FE0A4F8768294F87B5240
:1050D000FFF7D8FD94F87B32002860D10D2B10D05B
:1050E000072D1ED9072B1CD839464FF400723046C5
:1050F00001F090FD83B219462046A4F87832002BC7
:10510000E2D1304601F08CFD354A1388002B59D18D
:105110005E21344803F0CAF90D2384F87C3284F808
:105120007B32E06EF0B1B4F87430BBB17F2B09D89C
:1051300000EB4303023300F58175002223F8022FB0
:10514000AB42FBD101460022204605F06BFC94F8EF
:105150007B32072B01D8DB073CD5E06E05F038FC2D
:105160000023E366206FE0B1B4F874308BB17F2B7D
:1051700009D800EB4303023300F58175002223F8C0
:10518000022F9D42FBD101460122204605F04AFC38
:10519000206F05F01DFC00232367BDE8F0810D2B77
:1051A000AFD0BDE8F081DA077FF56DAF05F0BCFB4D
:1051B000206700287FF469AFE06EBDE8F04105F09C
:1051C00007BC7047013B9BB21380002BA0D0A3E724
:1051D000BDE8F0810122E16E204605F023FCBCE72A
:1051E00038B8FF1F6094FF1F024A0349034806F0C6
:1051F0005BBA00BFFC93FF1FD546000030B8FF1F0D
:10520000024A0349034806F04FBA00BFFC93FF1F50
:10521000D54600003CB8FF1F024A0349034806F088
:1052200043BA00BFFC93FF1FD546000044B8FF1FE0
:10523000024A0349034806F037BA00BFFC93FF1F38
:10524000D54600004CB8FF1F024A0349034806F048
:105250002BBA00BFFC93FF1FD546000054B8FF1FB8
:105260002DE9F84F344B35481A68354912681B79D7
:105270000B70824229D2334B1B784BBBDFF8D4A092
:10528000DFF8D490DFF8D480DFF8D4B0DAF800602B
:10529000D9F80070B8F80040BBF80050002E3CD0A0
:1052A000A7B33A1D311D02EB450201EB440103F0A7
:1052B00021FC403540347F2C1CD8A8F800407F2DBD
:1052C0000BD8ABF80050BDE8F88FA0F58070D5E79B
:1052D0001D4B4FF080421A60D0E700243846ABF8EF
:1052E000004005F075FB194B1A68C9F800201C60D6
:1052F000BDE8F88F00243046A8F8004005F068FBB0
:10530000134B1A68CAF800201C60D8E7311D01EB66
:10531000440103F00EFC4034CDE737B1391D01EBF9
:10532000450103F026FC4035C5E74FF4807239464D
:1053300006F0EEFCBFE700BF60B8FF1F208BFF1F29
:105340001F80004078B8FF1F08E200E074B8FF1F1C
:105350007CB8FF1F70B8FF1F68B8FF1F5CB8FF1F45
:105360006CB8FF1F70B50021044605F075FB80B1D5
:1053700072B61C4A1368002B29D01B490D6805B36F
:105380001A4E156000220860328062B6184605F099
:105390001FFB2046012105F05FFB88B172B6144A5D
:1053A0001368CBB113490C6874B1134D146000221B
:1053B00008602A8062B61846BDE8704005F008BB58
:1053C00070BD086062B6E4E7086062B670BD074968
:1053D00010600B8062B6DCE7074910600B8062B694
:1053E00070BD00BF70B8FF1F7CB8FF1F5CB8FF1F07
:1053F00068B8FF1F74B8FF1F6CB8FF1F284B2949FE
:105400001A68294842F400421A600A6842F002020F
:105410000A601A6842F002021A600368002B3EDB41
:10542000224B1B68002B3ADB214A4FF08643136066
:105430001368002BFCDBF0B51E4C1F48DFF8A8E01A
:105440001E491F4B1F4A204F204E214D41F2100C88
:10545000C4F800C0002404600120CEF80000DFF88A
:105460008CE0C1F800E04FF480311960194B1360F3
:10547000DFF87CE0184A3A603460286000F18E4022
:10548000CEF80000154CB9671548164946F8503C4F
:105490004FF4C0632A61236003600B60F0BD704766
:1054A0003C8004404080044000F0024080F0024014
:1054B00000F1024004F1024060F0024008F00240B6
:1054C0000CF0024010F0024014F00240E0F0024004
:1054D00084F002401B1F0100001F1F1F08B0044082
:1054E0000CB0044018B0044004F002400100000772
:1054F00088F00240F8B5284C284F0121204604F0DE
:105500005BFF274A274B002515601D60FFF776FFDC
:10551000254B264ADFF8B0E0254826494FF4C066FF
:105520001E60236802261A609E802279C3F810E06C
:1055300002F18042D8609E6002F504324FF4807020
:1055400040F2011E0626D8829D82D8839D619E83EB
:10555000A3F806E08F204FF08073157010700B6079
:105560000F6005F019FB2279134B144D187053117D
:105570009B0003F1604303F5614302F11000012138
:1055800002F01F0201FA02F20D4E45F820600D49AB
:105590001A6023790B70F8BD60B8FF1F01000090FE
:1055A00070B8FF1F68B8FF1F04B00440208AFF1FB7
:1055B00000FEFFFF00F0024078B8FF1F008EFF1FC3
:1055C000615200001B80004022F00240024A034961
:1055D000034806F069B800BFFC93FF1FD5460000E2
:1055E00060B8FF1F024A0349034806F05DB800BFD8
:1055F000FC93FF1FD546000080B8FF1FF8B51E1EA4
:1056000003680446CCBF02EB420500250F469B68A9
:10561000D8BF164698477A19236862605B690A4AC0
:105620006661934201D12046F8BD20469847002884
:10563000F9D0064A064B516893FBF0F0884238BF18
:10564000084650602046F8BD7104000088B8FF1F6E
:1056500040420F0070B40F4C2268531C8A4283B042
:10566000236013DB0C4D0D4A2968019101992D68C7
:1056700000951668009D15604FF47A720025891B0D
:1056800002FB03F32560B3FBF1F3438003B070BC6E
:10569000704700BF9CB8FF1FCCBCFF1FA4B8FF1F02
:1056A0002DE9F04F43682D4C83B006468946002B08
:1056B0004BD103F0ADFEF36820601BB14846B168E2
:1056C00098478146264B1C680025002C36D07388ED
:1056D000A77C61686269632B236898BFA574D3F8BF
:1056E00004808DF804508DF805508DF80650B9F1FE
:1056F000000F1CD004F10B030DF1040E04F10E0C8D
:1057000013F801BFBBF1000F0DD093F803A00AF10D
:1057100001000BFB0000BAF1000F04D009FB00F000
:10572000000C8EF8000063450EF1010EE8D1204612
:1057300001ABC047A774A468002CC8D1304619211A
:10574000FFF788FF03B0BDE8F08F03F061FE226829
:105750007368801A9842AAD3ABE700BFA0B8FF1FB6
:1057600098B8FF1F00207047044B0022FF204FF025
:10577000FF31187099605A80DA60704788B8FF1F4F
:1057800000290BDD01EB41010144137803705378CC
:1057900043709378837003308842F6D1704700BF1E
:1057A00070B582B0FF25F02400298DF804208DF813
:1057B00006508DF8054010DD01EB41011E46044600
:1057C0004518214601A800F00BF89DF80420033489
:1057D0003244AC428DF80420F3D102B070BD00BF5A
:1057E000F0B4047846788278E00000F0F80000EB2E
:1057F000800303EB031303442506C3F307235FD49D
:1058000004F0400505F0FF0704F02004002D46D108
:1058100004F0FF00002C6CD05533DDB2AB243B46C6
:10582000FF2E1CD0002E79D01CB106FB0444C4F31B
:1058300007241DB106FB0555C5F307251BB106FB63
:105840000333C3F30723F043C0B200FB0000C0F3EF
:105850000720044405440344E4B2EDB2DBB2FF2A5E
:1058600018D012FB02F0003218BF012202EB102206
:1058700012F0FF0256D01CB102FB0444C4F307240B
:105880001DB102FB0555C5F307251BB102FB033310
:10589000C3F307230C704D708B70F0BC704704F09D
:1058A000FF075CBB00EBC00400EB440000EBC00052
:1058B0000412563BC4F1AB04DDB2E4B23B46AFE7A1
:1058C00004F0400707F0FF05E7B904F0200707F0F0
:1058D000FF04002F36D100EBC00300EB430000EBC8
:1058E000C000C0F30720C0F1AB055530EDB2C3B224
:1058F00096E7DC43E4B21D46034691E70024DD430E
:10590000EDB28DE704F0200404F0FF0594B903F133
:105910005504E4B2C3F1AB03DBB281E7FF231D46BC
:105920001C469CE71546144613460C704D708B7050
:10593000F0BC7047A3F15604E4B20025C3F155034F
:10594000DBB26DE7D8431C46C3B269E72DE9F041ED
:105950004F780E7891F802E0BE42314628BF3946B2
:10596000714528BF7146CC43E4B2761A7F1AC1EB69
:105970000E0EFF2CF6B2FFB25FFA8EFE40F0918061
:10598000BA1912EB0E0323D1002283700270427009
:10599000BDE8F0816B1EDBB2F219DC4312EB0E0F97
:1059A000E4B2F1D0FF2C13D04FF6FF73002C00F0BF
:1059B000E78093FBF4F303FB06F603FB07F7C6F35C
:1059C0000726C7F3072703FB0EFECEF3072EF219B7
:1059D000724492B2FE2A24D9FF2A18BFFF2333D083
:1059E000BE45724638BF3A46B24238BF3246B2422E
:1059F00000F09580BA4200F0A980002E7AD0C6EB64
:105A00000E0E764580F2CC8006EB460206EB421283
:105A10001212603AD2B20132027044708370BDE853
:105A2000F081002A77D04FF6FF7393FBF2F3D2B2E6
:105A300003FB06F603FB07F703FB0EFEC6F3072680
:105A4000C7F30727CEF3072E81FA52F1CBB2FF2B13
:105A5000C6D01902012940F2D780B1F5F75F9DBF8A
:105A60004FEA611C0CF1080C5FFA8CFC4FF0FF0C44
:105A70004FF0010804E05FFA82FCE04500F28C8000
:105A800008EB0C035B1003FB03F292B2DDB28A4217
:105A900005F1FF32EFD8FF2BA2D001355FFA85F870
:105AA000EBE7C4F1FF084FEA08281FFA88F8B8F5B9
:105AB000F75F18D94FF0FF0C012504E05FFA82FC74
:105AC00065453FF667AF05EB0C035B1003FB03F284
:105AD00092B2DCB2424504F1FF32EFD8FF2B2CD05A
